:100000000C94E8000C9410010C9410010C94100155
:100010000C9410010C9410010C9410010C9410011C
:100020000C9410010C9410010C9410010C946906AE
:100030000C9410010C9410010C9410010C941001FC
:100040000C941F040C9410010C9414030C94EE02F5
:100050000C9410010C9410010C9410010C941001DC
:100060000C94A2070C9410011F1C1F1E1F1E1F1FA3
:100070001E1F1E1F005EBCE2613FDD83C29C7E200E
:10008000A3FD1F419DC3217FFCA2401E5F01E3BD74
:100090003E6082DC237D9FC1421CFEA0E1BF5D0368
:1000A00080DE3C62BEE0025CDF81633D7C22C09E5C
:1000B0001D43A1FF4618FAA427799BC584DA386648
:1000C000E5BB5907DB856739BAE406581947A5FB34
:1000D0007826C49A653BD987045AB8E6A7F91B4528
:1000E000C6987A24F8A6441A99C7257B3A6486D81C
:1000F0005B05E7B98CD2306EEDB3510F4E10F2AC08
:100100002F7193CD114FADF3702ECC92D38D6F31F3
:10011000B2EC0E50AFF1134DCE90722C6D33D18FE7
:100120000C52B0EE326C8ED0530DEFB1F0AE4C12DB
:1001300091CF2D73CA947628ABF517490856B4EAC7
:100140006937D58B5709EBB536688AD495CB2977B3
:10015000F4AA4816E9B7550B88D6346A2B7597C9A7
:100160004A14F6A8742AC896154BA9F7B6E80A549B
:10017000D7896B3500000000240027002A0000000A
:100180000000250028002B000000000800020100EC
:100190000003040700000000000000000000000051
:1001A00023002600290004040404040404040202B9
:1001B00002020202030303030303010204081020E6
:1001C00040800102040810200102040810202912B6
:1001D00011241FBECFEFD8E0DEBFCDBF24E0AAE6DA
:1001E000B2E001C01D92A033B207E1F712E0A0E037
:1001F000B1E0EAE5FBE202C005900D92AA36B10734
:10020000D9F710E0C8EED0E004C02197FE010E94AB
:100210000113C73ED107C9F70E948F0C0C94AB1590
:100220000C940000CF92DF92EF92FF920F931F93F6
:10023000CF93DF936C017A018B01C0E0D0E0CE1543
:10024000DF0589F0D8016D918D01D601ED91FC910A
:100250000190F081E02DC6010995892B11F47E01F2
:1002600002C02196ECCFC701DF91CF911F910F9172
:10027000FF90EF90DF90CF900895FC01918D828DDB
:10028000981761F0828DDF01A80FB11D5D968C91EA
:10029000928D9F5F9F73928F90E008958FEF9FEFF5
:1002A0000895FC01918D828D981731F0828DE80FB1
:1002B000F11D858D90E008958FEF9FEF0895FC016B
:1002C000918D228D892F90E0805C9F4F821B910938
:1002D0008F739927089587E593E00E945F0121E0DD
:1002E000892B09F420E0822F0895FC01848DDF0121
:1002F000A80FB11DA35ABF4F2C91848D90E0019699
:100300008F739927848FA689B7892C93A089B18987
:100310008C9180648C93938D848D981306C0028891
:10032000F389E02D80818F7D80830895EF92FF9285
:100330000F931F93CF93DF93EC0181E0888F9B8D08
:100340008C8D981305C0E889F989808185FD24C0CA
:10035000F62E0B8D10E00F5F1F4F0F731127E02E4D
:100360008C8DE8120CC00FB607FCFACFE889F9892A
:10037000808185FFF5CFCE010E947501F1CF8B8D75
:10038000FE01E80FF11DE35AFF4FF0820B8FEA895F
:10039000FB898081806207C0EE89FF896083E889DC
:1003A000F98980818064808381E090E0DF91CF9142
:1003B0001F910F91FF90EF900895CF93DF93EC0181
:1003C000888D8823C9F0EA89FB89808185FD05C075
:1003D000A889B9898C9186FD0FC00FB607FCF5CFAF
:1003E000808185FFF2CFA889B9898C9185FFEDCFF7
:1003F000CE010E947501E7CFDF91CF91089580E093
:1004000090E0892B29F00E946B0181110C9400006F
:1004100008953FB7F8948091B8029091B902A091E5
:10042000BA02B091BB0226B5A89B05C02F3F19F0B8
:100430000196A11DB11D3FBFBA2FA92F982F882764
:10044000820F911DA11DB11DBC01CD0142E0660FBF
:10045000771F881F991F4A95D1F70895089585ED54
:100460008093BC008091BC0084FDFCCF10925603A9
:10047000089540918C02262F30E0240F311D213247
:100480003105DCF4209156032430C9F4FC0180E0EE
:1004900090E0861758F430918C022191DC01A65926
:1004A000BD4FA30FB11D2C930196F3CF80918C0209
:1004B000680F60938C0280E0089581E0089582E0E7
:1004C00008950895E091BD028091BC02E81730F4D0
:1004D000F0E0E05FFC4F808190E008958FEF9FEFA8
:1004E00008959091BD028091BC02981750F4E92FB5
:1004F000F0E0E05FFC4F208130E09F5F9093BD0211
:1005000002C02FEF3FEFC90108958091BC0290E037
:100510002091BD02821B91090895CF92DF92EF9244
:10052000FF920F931F93CF93DF937C01262F972F7A
:100530008A018091EC02882391F0C62FD72F6E019B
:10054000C40ED51ECC15DD0571F06991D701ED9172
:10055000FC910190F081E02DC7010995F3CF642F44
:10056000822F0E943902C801DF91CF911F910F9114
:10057000FF90EF90DF90CF900895CF93DF931F927D
:10058000CDB7DEB769832091EC022223D1F0209110
:100590000F03203240F021E030E0FC01338322835E
:1005A00080E090E015C08091ED02E82FF0E0E2518C
:1005B000FD4F998190838F5F8093ED0280930F03AD
:1005C00005C061E0CE0101960E94390281E090E011
:1005D0000F90DF91CF9108950E9443151F920F92C3
:1005E0000FB60F9211242F933F934F935F936F9306
:1005F0007F938F939F93AF93BF93EF93FF9387E581
:1006000093E00E947501FF91EF91BF91AF919F918F
:100610008F917F916F915F914F913F912F910F90AB
:100620000FBE0F901F9018951F920F920FB60F924A
:1006300011242F938F939F93EF93FF93E091670380
:10064000F09168038081E0916D03F0916E0382FD6B
:1006500012C09081809170038F5F8F73209171031E
:10066000821751F0E0917003F0E0E95AFC4F958F4A
:100670008093700301C08081FF91EF919F918F91D2
:100680002F910F900FBE0F901F90189590E0FC01D6
:10069000E857FE4F3491FC01E654FE4F2491FC01D3
:1006A000EA55FE4FE491EE2309F43BC0332339F1C0
:1006B000333091F038F43130A9F0323001F584B59F
:1006C0008F7D12C0373091F03830A1F03430B9F45A
:1006D000809180008F7D03C0809180008F77809310
:1006E00080000DC084B58F7784BD09C08091B000B3
:1006F0008F7703C08091B0008F7D8093B000F0E0D1
:10070000EE0FFF1FE258FE4FA591B4918FB7F894FA
:10071000EC91611103C020952E2301C02E2B2C9348
:100720008FBF0895CF93DF9390E0FC01E654FE4F16
:100730002491FC01EA55FE4F8491882361F190E0F9
:10074000880F991FFC01EC58FE4FC591D491FC0114
:10075000E258FE4FA591B491611109C09FB7F8947A
:100760008881209582238883EC912E230BC06230F0
:1007700061F49FB7F8943881822F80958323888312
:10078000EC912E2B2C939FBF06C08FB7F894E88175
:100790002E2B28838FBFDF91CF9108958E3008F0E4
:1007A0008E508770806480937C0080917A00806492
:1007B00080937A0080917A0086FDFCCF809178004A
:1007C0002091790090E0922B08958F929F92AF92A2
:1007D000BF92CF92DF92EF92FF926B017C010E9459
:1007E00009024B015C01C114D104E104F104F1F0F0
:1007F0000E940902DC01CB0188199909AA09BB09E9
:10080000883E9340A105B10570F321E0C21AD108DA
:10081000E108F10888EE880E83E0981EA11CB11C47
:10082000C114D104E104F10419F7DDCFFF90EF907A
:10083000DF90CF90BF90AF909F908F9008951F92C0
:100840000F920FB60F9211242F933F938F939F9384
:10085000AF93BF938091B4029091B502A091B6027C
:10086000B091B7023091B30223E0230F2D3720F46B
:100870000196A11DB11D05C026E8230F0296A11DFA
:10088000B11D2093B3028093B4029093B502A0935C
:10089000B602B093B7028091B8029091B902A091CC
:1008A000BA02B091BB020196A11DB11D8093B8029E
:1008B0009093B902A093BA02B093BB02BF91AF91DB
:1008C0009F918F913F912F910F900FBE0F901F908E
:1008D0001895DC01E0E0615038F08D91E827F0E0F8
:1008E000EC58FF4FE491F7CF8E2F0895FC019081D3
:1008F0000180F281E02DF8948181892B818322810E
:10090000892F809528232283A7E0B0E01197F1F783
:10091000218182238183A3E2B0E01197F1F78081E6
:100920007894EFECF0E03197F1F7982381E009F447
:1009300080E00895FC0190810180F281E02D892FF3
:10094000809560FF12C0F894228182238283818186
:10095000892B8183A3E2B0E01197F1F78281982B74
:100960009283789487ED90E011C0F89422818223DD
:1009700082838181892B8183AFEFB0E01197F1F7FA
:100980008281982B928378948FE090E00197F1F721
:100990000895CF92DF92EF92FF920F931F93CF9320
:1009A000DF931F92CDB7DEB76C01E62E08E010E0B2
:1009B000FF24F39461E08F2D8E2109F460E0C601DD
:1009C00049830E949A04FF0C0150110949810115C5
:1009D000110581F7411115C0F894D6011196ED91DA
:1009E000FC91129791818C91809589238183119636
:1009F000ED91FC91129792818C918095892382834D
:100A000078940F90DF91CF911F910F91FF90EF900D
:100A1000DF90CF900895CF92DF92EF92FF920F93E5
:100A20001F93CF93DF931F92CDB7DEB78C01F62EC5
:100A300040E065E579830E94C904CF2C7981D72EE7
:100A4000760188E0E80EF11CF60161916F0140E04B
:100A5000C8010E94C904CE14DF04B1F70F90DF91E2
:100A6000CF911F910F91FF90EF90DF90CF9008955D
:100A7000FC0190810180F281E02DF8948181292F81
:100A800020958223818378948DE743E050E0815064
:100A900021F1DA011197F1F730813923C1F3F8948C
:100AA0008281822382838181892B81837894ABE741
:100AB000B7E01197F1F7F894818128232183A3E10E
:100AC000B1E01197F1F78081982381E009F080E08F
:100AD0007894E3E6F6E03197F1F70895CF92DF924C
:100AE000EF92FF92CF93DF93EC01603282E07807C0
:100AF0000CF03DC077FD06C0653B71052CF064EB42
:100B000070E002C060E070E0898128E830E06901AF
:100B1000C81AD10887FDD394CC0CDD1CCC0CDD1C8D
:100B20000D2C000CEE08FF088A8128E532E0281B16
:100B3000310987FD3395220F331F220F331FC9015F
:100B4000330FAA0BBB0B9C01AD012C193D094E09BB
:100B50005F09DB010E94721524EB30E040E050E0B9
:100B60000E944815C20ED31EE41EF51EB6018881F0
:100B70008C3080F5998148E850E0491B510997FD78
:100B80005395440F551F440F551F6417750784F084
:100B90009A8128E532E0291B310997FD3395220F10
:100BA000331F220F331FAB01261737070CF4A9019F
:100BB00042505109440F551F2FB7F89490E0FC01A3
:100BC000EE0FFF1F8E0F9F1FFC01E254FD4F52835B
:100BD00041832FBFDF91CF91FF90EF90DF90CF90B7
:100BE00008951F93CF93DF93EC01162F88818C30EB
:100BF00008F04EC061E0812F0E9492038881E82FA7
:100C0000F0E09F01220F331FE20FF31FE254FD4F6C
:100C10001F739081907C192B108319821A826CE0CB
:100C20000E94CD129CE0899FB001112440E050E069
:100C30009A01260F371FF901EE0FFF1F2E0F3F1FDE
:100C4000F901E254FD4F908196FD16C04F5F5F4F52
:100C50004C30510569F781110FC01092800082E07D
:100C6000809381001092850010928400B19A809147
:100C70006F00826080936F00E881F0E0CF01880F01
:100C8000991FE80FF91FE254FD4F80818064808333
:100C90008881DF91CF911F910895FC019091B2025C
:100CA0009C30A0F481E0890F8093B2029083892F59
:100CB00090E0FC01EE0FFF1F8E0F9F1FFC01E2541E
:100CC000FD4F88EB9BE09283818308958FEF8083B3
:100CD00008951F920F920FB60F9211242F933F93F6
:100CE0004F935F936F937F938F939F93AF93BF9334
:100CF000EF93FF938091B10287FF05C010928500AA
:100D0000109284001BC02091B102022E000C330B04
:100D10008091B20290E02817390784F48091B102E3
:100D2000082E000C990BFC01EE0FFF1F8E0F9F1F6A
:100D3000FC01E254FD4F808186FD15C08091B10217
:100D40008F5F8093B1022091B102022E000C330B11
:100D50008091B20290E028173907C4F48091B10263
:100D60008C3064F113C08091B102082E000C990BF5
:100D7000FC01EE0FFF1F8E0F9F1FFC01E254FD4F81
:100D8000808160E08F730E944603D8CF80918400F9
:100D900090918500049680349C4918F480E49CE985
:100DA00005C08091840090918500049690938900FD
:100DB000809388008FEF8093B1023BC02091840024
:100DC000309185008091B102082E000C990BFC0136
:100DD000EE0FFF1F8E0F9F1FFC01E254FD4F81811C
:100DE0009281820F931F9093890080938800809155
:100DF000B102082E000C990BFC01EE0FFF1F8E0FA5
:100E00009F1FFC01E254FD4F808186FF12C080913C
:100E1000B102082E000C990BFC01EE0FFF1F8E0F84
:100E20009F1FFC01E254FD4F808161E08F730E949F
:100E30004603FF91EF91BF91AF919F918F917F9169
:100E40006F915F914F913F912F910F900FBE0F9037
:100E50001F901895FC01908190539A3008F090E013
:100E6000818180532AE0929F800D11240895803D56
:100E700027E0920710F0805D974050E0E8E6F0E050
:100E800021E02E1B322F3E0F361728F43491430FEA
:100E9000511D3196F7CF633038F09C012370332712
:100EA000232B11F44F5F5F4F2DE631E0829FB0019D
:100EB000839F700D929F700D1124615071099C01E8
:100EC0002D5F3F4F3695279536952795CB01820F9D
:100ED000931F840F951F0895EF92FF920F931F9316
:100EE000CF93DF93EC0188814A81698190E00E9471
:100EF00037079C01A8E1B0E00E949C152B817B0183
:100F00008C01E20EF11C011D111DA8019701ACE33B
:100F1000B0E00E9467152C817B018C01E20EF11C70
:100F2000011D111DA80197010E9467152D81620FF7
:100F3000711D811D911DDF91CF911F910F91FF9028
:100F4000EF9008951F920F920FB60F9211242F93D6
:100F50003F934F935F936F937F938F939F93AF9341
:100F6000BF93EF93FF938091B900887F803609F497
:100F70009CC068F5883209F45BC090F4803109F4B4
:100F800054C038F4882309F4F6C0883009F44DC001
:100F9000F6C0883109F44CC0803209F45DC0EFC05E
:100FA000803409F468C048F4803309F455C08833AC
:100FB00009F0E5C080935403D8C0803509F44FC0D0
:100FC000883509F45DC0883409F0D9C0D6C08839A5
:100FD00009F4C7C0A8F4883709F467C038F4883624
:100FE00009F463C0803709F460C0C9C0883809F4C7
:100FF000B8C0803909F45FC0803809F0C0C05BC058
:10100000803B09F486C038F4803A09F466C0883A17
:1010100009F47FC0B4C0803C09F4A7C0883C09F43F
:10102000A4C0883B09F48AC0AAC08091510310C0B3
:101030009091530380915203981770F5E0915303F8
:1010400081E08E0F80935303F0E0E05DFC4F8081E0
:101050008093BB0085EC86C0809354038EC0E091E2
:10106000530381E08E0F809353038091BB00F0E027
:10107000E05DFC4F808390915303809152036EC0DA
:10108000E091530381E08E0F809353038091BB0066
:10109000F0E0E05DFC4F80838091550381116DC0CD
:1010A00081E08093500384EA61C083E0809356031B
:1010B0001092B002CFCF8091B002803208F051C0C0
:1010C000E091B00281E08E0F8093B0028091BB006E
:1010D000F0E0E057FD4F8083BDCF85EC8093BC00EE
:1010E000109256038091B002803230F4E091B00249
:1010F000F0E0E057FD4F10826091B00270E0E091A7
:101100008E02F0918F0280E992E009951092B00270
:1011100036C084E08093560310928D0210928C02A8
:10112000E0918A02F0918B02099580918C028111E5
:1011300005C081E080938C0210926A02E0918D02DA
:1011400081E08E0F80938D02F0E0E659FD4F8081A3
:101150008093BB0090918D0280918C02981708F4C7
:1011600079CF85E88093BC000AC085EC8093BC00F1
:101170001092560304C0109254030E942F02FF9154
:10118000EF91BF91AF919F918F917F916F915F91FF
:101190004F913F912F910F900FBE0F901F90189578
:1011A000CF93DF93CDB7DEB761970FB6F894DEBF6C
:1011B0000FBECDBF80911404909115040E94380594
:1011C00040E06CEC80911404909115040E94C904D5
:1011D00040910F0464E480911404909115040E94DE
:1011E000C904809111048823A9F0E0911004E9500A
:1011F000E33040F4F0E0EE0FFF1FE85AFE4F60814D
:10120000718102C06EEE72E0072E000C880B990B04
:101210000E94E503E0911404F091150413861586ED
:101220001486DF011B96CF0103961E92A817B907FB
:10123000E1F7BE01665F7F4FCF010E9488098823D6
:1012400041F067E0CE010A960E94690499898917E6
:1012500029F060E070E08EEF92EC51C0BE016F5F4C
:101260007F4FCE010A960E94180A882341F068E059
:10127000CE0101960E9469049985891799F060E86A
:1012800074EE613854EE750724F3072E000C880BBA
:10129000990B0E941C1420E030E040E05CE30E94C7
:1012A000D1142DC0698188E0689FB00111248A8122
:1012B000282F30E0322F2227330F330F330F262B06
:1012C000372B8A858031C9F4688570E08F81AB0146
:1012D000481B5109CA019695982F8827979587959D
:1012E0000E94ED1260517109207F53E0220F331FDD
:1012F0005A95E1F7620F731FC4CFB901C2CF61964F
:101300000FB6F894DEBF0FBECDBFDF91CF91089529
:10131000AF92BF92CF92DF92EF92FF920F931F9303
:10132000CF93DF931F92CDB7DEB75C01D62EE72EA9
:10133000FC018585811105C0C5010E943805811118
:1013400006C0F50113861586148680E065C040E06E
:1013500060EFC5010E94C90401E0F12CC12C11E02D
:10136000C5010E947604682FC50169830E94760436
:101370006981613019F48130B9F433C04F2D50E0E8
:1013800068131BC0F5018385181730F4E40FF51FAF
:101390008381802349F402C0181731F060E01930CE
:1013A00058F4F501148708C0F501EF0DF11D838194
:1013B000802B838361E009C0C12EF501E40FF51F86
:1013C0009381802F809589238383C5010E949A048D
:1013D0001F5F000F11F4F39401E0F7E0FF1508F030
:1013E000BFCF113408F4ADCFF501C386C11002C0E0
:1013F00081E08587F5018381882309F4A2CFD50197
:101400001396ED2DFE2D9501255F3F4F8D91819314
:10141000A217B307D9F781E00F90DF91CF911F9109
:101420000F91FF90EF90DF90CF90BF90AF90089515
:10143000AF92BF92CF92DF92EF92FF920F931F93E2
:10144000CF93DF93EC018B018091140490911504EC
:101450000E9438058823A1F1BE0180911404909167
:1014600015040E940B0540E06EEB809114049091EE
:1014700015040E94C904E801680189E0C80ED11C66
:10148000A0901404B090150488E0E82EF12C01E03F
:1014900010E0C5010E9476048111102B000F81E03D
:1014A000E81AF108B1F71993CC15DD0549F78091D9
:1014B0001404909115040E94380591E0813009F0E0
:1014C00090E0892FDF91CF911F910F91FF90EF90C6
:1014D000DF90CF90BF90AF900895CF93DF93CDB7BB
:1014E000DEB729970FB6F894DEBF0FBECDBFFC0163
:1014F0002081203119F1BE016F5F7F4F0E94180AD1
:10150000882379F068E0CE0101960E9469049985EC
:10151000891307C008C0803458F08F3569F08F37C1
:1015200069F080E00CC08D818F33A9F78AE007C095
:101530008F31B9F789E003C08BE001C08CE02996B8
:101540000FB6F894DEBF0FBECDBFDF91CF910895E7
:10155000009769F0FC0101900020E9F73197AF0195
:10156000481B590BBC0187E593E00C94120180E005
:1015700090E00895CF93DF930E94A80AEC018AEAD5
:1015800091E00E94A80A8C0F9D1FDF91CF910895D2
:10159000909156039111FCCF91E090935603909354
:1015A00055032FEF2093540310925303260F2093DB
:1015B00052039093510390915103880F892B80938C
:1015C000510380915003813061F410925003809157
:1015D00051038093BB008091BC0083FDF8CF85EC64
:1015E00001C085EE8093BC00809156038130E1F309
:1015F00080915303861710F460915303A0E3B3E086
:1016000020E133E0F9018E2F821B861718F48D91AB
:101610008193F9CF862F0895382F20910F03909151
:101620000E03213208F049C0809156038111FCCF8E
:1016300042E040935603309355033FEF30935403F9
:101640001092530320935203AEEEB2E040E353E016
:10165000FA013E2F341B321718F43D913193F9CF24
:101660001092510320915103990F922B90935103A3
:1016700090915003913061F4109250039091510376
:101680009093BB009091BC0093FDF8CF95EC01C006
:1016900095EE9093BC00909156039230E1F39091B7
:1016A00054039F3F79F080915403803241F0809140
:1016B0005403803331F084E005C081E003C082E050
:1016C00001C083E01092ED0210920F031092EC0221
:1016D0000895E0915703F09158030190F081E02DB7
:1016E000682F87E593E009948F929F92AF92BF9203
:1016F0000F931F93CF93DF93CDB7DEB7A1970FB6AC
:10170000F894DEBF0FBECDBF19A2423008F44AE004
:101710008E010F5D1F4F842E912CA12CB12CA501A1
:1017200094010E947A15E62FB901CA0101501109EE
:10173000EA3014F4E05D01C0E95CD801EC93232B9E
:10174000242B252B61F7C8010E94A80AA1960FB689
:10175000F894DEBF0FBECDBFDF91CF911F910F91E7
:10176000BF90AF909F908F9008954F925F926F922D
:101770007F928F929F92AF92BF92CF92DF92EF9221
:10178000FF926B017C01B42E9B01AC010E943E15BF
:10179000882319F08BE592E027C026013701E894F1
:1017A00077F82FEF3FEF4FE75FE7C301B2010E94E9
:1017B0003E1581110DC02FEF3FEF4FE75FE7C301EB
:1017C000B2010E94741318161CF48FE592E00CC04D
:1017D0002FEF3FEF4FE75FE4C701B6010E94CC1443
:1017E000181684F483E692E0FF90EF90DF90CF909C
:1017F000BF90AF909F908F907F906F905F904F9031
:101800000C94A80A2FEF3FEF4FE75FECC701B6013A
:101810000E94741387FDE6CF20E030E0A901C701E4
:10182000B6010E94741387FF09C08DE20E94690B04
:101830004C01F7FAF094F7F8F09402C0812C912C47
:10184000A12C60E070E080E09FE3AB1441F020E069
:1018500030E040E251E40E947913A394F6CF9B015B
:10186000AC01C701B6010E9408132B013C010E9484
:10187000EB136B017C010E941A149B01AC01C301A4
:10188000B2010E9407132B013C014AE0C701B601D7
:101890000E94740B7C01E80CF91CBB2031F087E638
:1018A00092E00E94A80AE80EF91EDB2CDD2021F14F
:1018B00020E030E040E251E4C301B2010E94D114C3
:1018C0002B013C010E94EB134B01A12CB12C4AE0EF
:1018D000C501B4010E94740BE80EF91EC501B401E4
:1018E0000E941A149B01AC01C301B2010E940713AC
:1018F0002B013C01DA94DACFC701FF90EF90DF9023
:10190000CF90BF90AF909F908F907F906F905F909F
:101910004F90089542E00C94B50B0C94A80ACF9315
:10192000DF93CDB7DEB761970FB6F894DEBF0FBE79
:10193000CDBF789484B5826084BD84B5816084BD58
:1019400085B5826085BD85B5816085BD80916E005D
:10195000816080936E00109281008091810082608E
:1019600080938100809181008160809381008091CB
:1019700080008160809380008091B10084608093BA
:10198000B1008091B00081608093B00080917A00B6
:10199000846080937A0080917A00826080937A00DC
:1019A00080917A00816080937A0080917A008068CB
:1019B00080937A001092C100E0916703F091680370
:1019C00082E08083E0916303F09164031082E091F0
:1019D0006503F09166038FEC808310926F03E091B2
:1019E0006B03F0916C0386E08083E0916903F091D2
:1019F0006A03808180618083E0916903F0916A03CA
:101A0000808188608083E0916903F0916A0380811E
:101A100080688083E0916903F0916A0380818F7D03
:101A2000808369E070E08CE094E00E94F1056AE058
:101A300070E089E094E00E94F1056BE070E086E0E0
:101A400094E00E94F1056CE070E083E094E00E9475
:101A5000F1056DE070E080E094E00E94F10560E047
:101A600080E10E94920360E081E10E949203109263
:101A7000BD021092BC021092ED0210920F03109260
:101A8000560311E0109355031092500361E082E178
:101A90000E94460361E083E10E9446038091B90001
:101AA0008E7F8093B9008091B9008D7F8093B900BB
:101AB00088E48093B80085E48093BC001093EC0226
:101AC00088E680930E031092ED0210920F036FE0F0
:101AD00084EF93E00E94BD0281E00E940C0B61E064
:101AE00088E60E94C80A1092BD028093BC0284EF6F
:101AF00093E00E94710287FF04C08EE791E00E948C
:101B0000BA0AE0911404F091150413861586148620
:101B1000DF011B9633961E92AE17BF07E1F71092B6
:101B2000130411E0BE01665F7F4F80911404909111
:101B300015040E948809882309F451C067E0CE018A
:101B40000A960E94690499898913ECCF80910F0449
:101B5000811127C080911404909115040E943805CA
:101B6000BE01665F7F4F80911404909115040E941E
:101B70000B0540E064EB80911404909115040E94E1
:101B8000C90480911404909115040E947604082FD2
:101B900080911404909115040E943805002309F4E3
:101BA00015C2BE016F5F7F4FCE010A960E94180AD0
:101BB00000911004CE010A960E946D0A801718F455
:101BC0008091100404C0CE010A960E946D0A809391
:101BD0001004809113048F5F80931304A3CF2224F9
:101BE0002394FAEF3F2E80E10E94CE039093EB0204
:101BF0008093EA0281E10E94CE039093E9028093F0
:101C0000E8022092EC0228E620930E031092ED02E7
:101C100010920F0360E084EF93E00E94BD0281E028
:101C20000E940C0B67E088E60E94C80A1092BD0271
:101C30008093BC0284EF93E00E9471028F77982F0B
:101C400092959F70782E939D700C112484EF93E0F1
:101C50000E9471029C01332744E0359527954A95EF
:101C6000E1F7182F329E100D112484EF93E00E94AB
:101C700071029C01332754E0359527955A95E1F779
:101C8000082F329E000D112484EF93E00E94710210
:101C900084EF93E00E9471029C01332764E0359544
:101CA00027956A95E1F7882E329E800C112484EFE7
:101CB00093E00E9471029C01332774E035952795CB
:101CC0007A95E1F7982E329E900C112484EF93E0E0
:101CD0000E9471029C013327E4E035952795EA952F
:101CE000E1F7329E800D1124A82EB12C250130E39E
:101CF000431A38EF530A85E991E00E942A078A8740
:101D000042E04B8780E991E00E942A078C8788E9AE
:101D100091E00E942A078D878BE991E00E942A07B3
:101D20008E878EE991E00E942A078F8781E189835F
:101D30002A822B821C821D821E82CE010A960E945C
:101D40006C076B017C01CE0101960E946C07A70114
:101D50009601261B370B480B590BCA01B90120E825
:101D600031E541E050E00E94481569017A01B20175
:101D7000550C880B990B4AE00E94740B8FE20E946D
:101D8000690B692D70E080E090E04AE00E94740BDE
:101D90008FE20E94690B682D70E080E090E04AE0DD
:101DA0000E94740B81EA91E00E948D0C482D692DF0
:101DB000C5010E943707069667E070E00E94D912BD
:101DC0004CE0489F9001499F300D1124C90180507B
:101DD0009F4F0E948D0C84EA91E00E948D0C87EA4F
:101DE00091E00E948D0C602F70E080E090E04AE06E
:101DF0000E94740B8AE30E94690B612F70E080E0FF
:101E000090E04AE00E94740B8AE30E94690B672D00
:101E100070E080E090E04AE00E94740B8AEA91E072
:101E20000E94A80A8DEA91E00E948D0CF7FE0EC078
:101E30008DE20E94690B88279927DC018C199D0986
:101E4000AE09BF094AE0BC01CD0103C04AE0C701A9
:101E5000B6010E94740B87EB91E00E94BA0A85EDEF
:101E600091E00E948D0CB6010D2C000C880B990B93
:101E70000E941C142B013C0124E237E94FE75BE38D
:101E80000E94D11420E030E048EC52E40E94D114CA
:101E90004B015C010E948A0C81EF91E00E94BA0A1A
:101EA0008AEA91E00E94A80A0E94D0086093E402A6
:101EB0007093E5028093E6029093E70287EF91E04A
:101EC0000E948D0C6091E4027091E5028091E6021F
:101ED0009091E70242E00E94B50B8AEA91E00E94ED
:101EE000A80A62E070E08CE094E00E946E0562E077
:101EF00070E089E094E00E946E0562E070E086E0A8
:101F000094E00E946E0562E070E083E094E00E943D
:101F10006E0562E070E080E094E00E946E0568EE7D
:101F200073E080E090E00E94E503093021F4112382
:101F300009F44FC028C00C3021F4112309F401C169
:101F400022C0043101F51C31F1F4ACC1E09106046A
:101F5000F0E0CF01880F991FE80FF91FE254FD4F01
:101F600080818F7B808385E192E00E948D0CC5018A
:101F7000B4010E948A0C8EE292E00E94BA0A85EABD
:101F800091E00E94BA0A0E94D00820E030E040EFC1
:101F900051E40E94CC1487FD16C087E492E00E94B1
:101FA000BA0A64EB70E080E094E00E946E0561E0A4
:101FB00070E083E094E00E946E0568E873E180E0E1
:101FC00090E00E94E5030E94FF010DCE10930F04E4
:101FD000E8CDC60101970E97B0F564EB70E08CE098
:101FE00094E00E946E0520E030E043EC53E4C3012E
:101FF000B2010E94D1140E94EB130E94E5038FEFFF
:1020000091E00E94BA0A84EB90E09093E3028093FF
:10201000E2020091E2021091E302101611060CF0A8
:102020008AC0B8018CE094E00E946E056AE070E01E
:1020300080E090E00E94E503015011091093E30253
:102040000093E202E6CFC6010E970F97B0F564EB5E
:1020500070E089E094E00E946E0520E030E043ECFF
:1020600053E4C301B2010E94D1140E94EB130E94F9
:10207000E5038FEF91E00E94BA0A84EB90E0909321
:10208000E3028093E2020091E2021091E302101653
:1020900011060CF053C0B80189E094E00E946E056F
:1020A0006AE070E080E090E00E94E50301501109D1
:1020B0001093E3020093E202E6CF5CE1C51AD10877
:1020C0008FE0C816D10408F05ECF64EB70E086E0C4
:1020D00094E00E946E0520E030E043EC53E4C3013D
:1020E000B2010E94D1140E94EB130E94E5038FEF0E
:1020F00091E00E94BA0A84EB90E09093E30280930F
:10210000E2020091E2021091E302101611060CF0B7
:102110001DCFB80186E094E00E946E056AE070E091
:1021200080E090E00E94E503015011091093E30262
:102130000093E202E6CFE0910C040ACFE09109049B
:1021400007CFC60101970E97A8F564EB70E08CE00D
:1021500094E00E946E0520E030E043EC53E4C301BC
:10216000B2010E94D1140E94EB130E94E5038FEF8D
:1021700091E00E94BA0A84EB90E09093E30280938E
:10218000E2020091E2021091E302101611069CF6A1
:10219000B8018CE094E00E946E056AE070E080E097
:1021A00090E00E94E503015011091093E3020093AF
:1021B000E202E7CFC6010E970F97B0F564EB70E02F
:1021C00089E094E00E946E0520E030E043EC53E4A7
:1021D000C301B2010E94D1140E94EB130E94E503D7
:1021E0008FEF91E00E94BA0A84EB90E09093E302B3
:1021F0008093E2020091E2021091E30210161106B0
:102200000CF09CCFB80189E094E00E946E056AE072
:1022100070E080E090E00E94E50301501109109306
:10222000E3020093E202E6CF2CE1C21AD1083FE0BC
:10223000C316D10408F0A7CE64EB70E086E094E00A
:102240000E946E0520E030E043EC53E4C301B2018C
:102250000E94D1140E94EB130E94E5038FEF91E0DE
:102260000E94BA0A84EB90E09093E3028093E2022A
:102270000091E2021091E302101611060CF066CEF6
:10228000B80186E094E00E946E056AE070E080E0AC
:1022900090E00E94E503015011091093E3020093BE
:1022A000E202E6CFC60101970E97B0F564EB70E04D
:1022B0008CE094E00E946E0520E030E043EC53E4B3
:1022C000C301B2010E94D1140E94EB130E94E503E6
:1022D00081E392E00E94BA0A84EB90E09093E302DB
:1022E0008093E2020091E2021091E30210161106BF
:1022F0000CF021CFB8018CE094E00E946E056AE0FA
:1023000070E080E090E00E94E50301501109109315
:10231000E3020093E202E6CFC6010E970F97B0F5F5
:1023200064EB70E089E094E00E946E0520E030E00C
:1023300043EC53E4C301B2010E94D1140E94EB1399
:102340000E94E50381E392E00E94BA0A84EB90E0E8
:102350009093E3028093E2020091E2021091E30283
:10236000101611060CF0EACEB80189E094E00E9444
:102370006E056AE070E080E090E00E94E5030150A5
:1023800011091093E3020093E202E6CF4CE1C41A74
:10239000D1085FE0C516D10408F0F5CD64EB70E01C
:1023A0008CE094E00E946E0560ED77E080E090E0C4
:1023B0000E94E50381E392E00E94BA0A84EB90E078
:1023C0009093E3028093E2020091E2021091E30213
:1023D0001016110694F4B8018CE094E00E946E058A
:1023E0006AE070E080E090E00E94E503015011098E
:1023F0001093E3020093E202E7CF64EB70E089E020
:1024000094E00E946E0560ED77E080E090E00E942D
:10241000E50384EB90E09093E3028093E202009165
:10242000E2021091E302101611060CF09CCDB801E7
:1024300089E094E00E946E056AE070E080E090E040
:102440000E94E503015011091093E3020093E20298
:10245000E6CF10925A031092590388EE93E0A0E061
:10246000B0E080935B0390935C03A0935D03B09313
:102470005E0322E631E0309358032093570325ECA6
:1024800030E0309364032093630324EC30E0309316
:1024900066032093650320EC30E0309368032093BB
:1024A000670321EC30E030936A032093690322EC48
:1024B00030E030936C0320936B0326EC30E03093D4
:1024C0006E0320936D0310927003109271031092AB
:1024D0007203109273031092F7031092F603809325
:1024E000F8039093F903A093FA03B093FB0382E7F8
:1024F00091E09093F5038093F40360E082E00E9402
:102500009203ECEBF1E0E491E0932204E8EAF1E0DD
:10251000E491F0E0EE0FFF1FE456FE4F8591949199
:10252000909324048093230410922D0410922F047E
:1025300010922E04EDE2F4E0129284E0E532F80706
:10254000D9F78EE292E0909321048093200482E2F6
:1025500094E0909315048093140410921304109245
:102560000F0489E08093100481E08093110480932C
:1025700012048CE094E00E944D0689E094E00E94F1
:102580004D0686E094E00E944D0683E094E00E94B0
:102590004D0680E094E00C944D06991B79E004C050
:1025A000991F961708F0961B881F7A95C9F7809592
:1025B0000895AA1BBB1B51E107C0AA1FBB1FA6178A
:1025C000B70710F0A61BB70B881F991F5A95A9F7DC
:1025D00080959095BC01CD01089597FB072E16F4C8
:1025E000009407D077FD09D00E94D91207FC05D0CE
:1025F0003EF4909581959F4F0895709561957F4F1A
:102600000895EE0FFF1F0590F491E02D09945058A6
:10261000BB27AA270E941F130C9492140E948414B3
:1026200038F00E948B1420F039F49F3F19F426F4FF
:102630000C9481140EF4E095E7FB0C947B14E92FC5
:102640000E94A31458F3BA1762077307840795070B
:1026500020F079F4A6F50C94C5140EF4E0950B2E39
:10266000BA2FA02D0B01B90190010C01CA01A001E4
:102670001124FF27591B99F0593F50F4503E68F13F
:102680001A16F040A22F232F342F4427585FF3CF80
:10269000469537952795A795F0405395C9F77EF451
:1026A0001F16BA0B620B730B840BBAF09150A1F09A
:1026B000FF0FBB1F661F771F881FC2F70EC0BA0F20
:1026C000621F731F841F48F4879577956795B795A8
:1026D000F7959E3F08F0B0CF9395880F08F09927A3
:1026E000EE0F9795879508950E94571408F481E09E
:1026F00008950E948D130C9492140E948B1458F02C
:102700000E94841440F029F45F3F29F00C947B145C
:1027100051110C94C6140C9481140E94A31468F3F4
:102720009923B1F3552391F3951B550BBB27AA278A
:1027300062177307840738F09F5F5F4F220F331FC4
:10274000441FAA1FA9F335D00E2E3AF0E0E832D08C
:1027500091505040E695001CCAF72BD0FE2F29D08F
:10276000660F771F881FBB1F261737074807AB0761
:10277000B0E809F0BB0B802DBF01FF2793585F4FD6
:102780003AF09E3F510578F00C947B140C94C614DB
:102790005F3FE4F3983ED4F3869577956795B795B8
:1027A000F7959F5FC9F7880F911D9695879597F9C3
:1027B0000895E1E0660F771F881FBB1F621773073C
:1027C0008407BA0720F0621B730B840BBA0BEE1F51
:1027D00088F7E09508950E94AB1488F09F5798F011
:1027E000B92F9927B751B0F0E1F0660F771F881F16
:1027F000991F1AF0BA95C9F714C0B13091F00E9430
:10280000C514B1E008950C94C514672F782F88275C
:10281000B85F39F0B93FCCF3869577956795B39556
:10282000D9F73EF490958095709561957F4F8F4FC5
:102830009F4F0895E89409C097FB3EF490958095CA
:10284000709561957F4F8F4F9F4F9923A9F0F92F76
:1028500096E9BB279395F695879577956795B795F4
:10286000F111F8CFFAF4BB0F11F460FF1BC06F5FDA
:102870007F4F8F4F9F4F16C0882311F096E911C0EC
:10288000772321F09EE8872F762F05C0662371F00D
:1028900096E8862F70E060E02AF09A95660F771F21
:1028A000881FDAF7880F9695879597F90895990FFD
:1028B0000008550FAA0BE0E8FEEF16161706E8070A
:1028C000F907C0F012161306E407F50798F0621B2B
:1028D000730B840B950B39F40A2661F0232B242B00
:1028E000252B21F408950A2609F4A140A6958FEF1F
:1028F000811D811D089597F99F6780E870E060E071
:1029000008959FEF80EC089500240A941616170688
:1029100018060906089500240A94121613061406D0
:1029200005060895092E0394000C11F4882352F033
:10293000BB0F40F4BF2B11F460FF04C06F5F7F4FEB
:102940008F4F9F4F089557FD9058440F551F59F0D2
:102950005F3F71F04795880F97FB991F61F09F3F8C
:1029600079F087950895121613061406551FF2CFB5
:102970004695F1DF08C0161617061806991FF1CF05
:1029800086957105610508940895E894BB2766272C
:102990007727CB0197F908950E94571408F48FEF19
:1029A00008950E94E4140C9492140E94841438F048
:1029B0000E948B1420F0952311F00C947B140C943E
:1029C000811411240C94C6140E94A31470F3959FD3
:1029D000C1F3950F50E0551F629FF001729FBB2716
:1029E000F00DB11D639FAA27F00DB11DAA1F649FB2
:1029F0006627B00DA11D661F829F2227B00DA11D65
:102A0000621F739FB00DA11D621F839FA00D611DEA
:102A1000221F749F3327A00D611D231F849F600D0B
:102A2000211D822F762F6A2F11249F5750409AF034
:102A3000F1F088234AF0EE0FFF1FBB1F661F771FC0
:102A4000881F91505040A9F79E3F510580F00C948B
:102A50007B140C94C6145F3FE4F3983ED4F3869540
:102A600077956795B795F795E7959F5FC1F7FE2B2B
:102A7000880F911D9695879597F908950E94571490
:102A8000880B990B089581E090E0F8940C94AB15B5
:102A9000052E97FB1EF400940E945F1557FD07D08A
:102AA0000E947A1507FC03D04EF40C945F155095E4
:102AB0004095309521953F4F4F4F5F4F089590952A
:102AC0008095709561957F4F8F4F9F4F08950E941D
:102AD0009C15A59F900DB49F900DA49F800D911DF6
:102AE00011240895B7FF0C9467150E946715821B87
:102AF000930B0895A1E21A2EAA1BBB1BFD010DC06A
:102B0000AA1FBB1FEE1FFF1FA217B307E407F5079D
:102B100020F0A21BB30BE40BF50B661F771F881F79
:102B2000991F1A9469F760957095809590959B010F
:102B3000AC01BD01CF010895A29FB001B39FC001B8
:102B4000A39F700D811D1124911DB29F700D811DD9
:0A2B50001124911D0895F894FFCFA1
:102B5A004D696E00000000000000000053656E0021
:102B6A00000000000000000053656C000000000037
:102B7A000000000052616200000000000000000036
:102B8A004B616D0000000000000000004A756D00F6
:102B9A000000000000000000536162000000000015
:102BAA0000000000010000005E00BC007701000088
:102BBA000000960112015F013D015101DD01000093
:102BCA000000BD028D028502710262026102525446
:102BDA0043206C6F77626174202121004665622070
:102BEA00203620323031370030303A33373A3338F2
:102BFA00002028002920007C20000D0A004861726C
:102C0A0069206B653A20002053656A616B20312F79
:102C1A0031322F31362854656261722050657274E0
:102C2A00616D612900526173696F2050616B616E39
:102C3A0020486172757320446962657269203A207E
:102C4A0000204772616D0053756875203A20002B89
:102C5A002B5B2057414B54552050414B414E20315C
:102C6A00205D2B2B0050616B616E20646962657276
:102C7A006920736562616E79616B203A2000477240
:102C8A00002B2B5B2057414B54552050414B414E52
:102C9A002033205D2B2B002B2B5B204149522044F3
:102CAA00494B55524153205D2B2B006E616E0069D2
:0A2CBA006E66006F7666002E0000C3
:00000001FF
