:100000000C9409020C9431020C9431020C943102CC
:100010000C9431020C9431020C9431020C94310294
:100020000C9431020C9431020C9431020C94310284
:100030000C9431020C9431020C9431020C94310274
:100040000C94280D0C9431020C94740C0C944E0CEE
:100050000C9431020C9431020C9431020C94310254
:100060000C9431020C943102596F75206172652035
:1000700073656E64696E67206D6F72652074686168
:100080006E203520636F6E73656375746976657372
:10009000207661726961626C65732C20796F7520BE
:1000A0006A75737420636F756C642073656E642069
:1000B00035207661726961626C65732E20546865C3
:1000C0006E206F74686572207661726961626C651A
:1000D000732077696C6C2062652064656C6574655B
:1000E000642100436F6E74656E742D4C656E677489
:1000F000683A2000436F6E74656E742D5479706594
:100100003A206170706C69636174696F6E2F6A73F5
:100110006F6E00436F6E6E656374696F6E3A206335
:100120006C6F736500582D417574682D546F6B6545
:100130006E3A2000557365722D4167656E743A20E2
:1001400041726475696E6F2D45746865726E657471
:100150002F312E3000486F73743A207468696E67CF
:10016000732E756269646F74732E636F6D00504FE8
:100170005354202F6170692F76312E362F636F6CA8
:100180006C656374696F6E732F76616C7565732F20
:100190003F666F7263653D747275652048545450B4
:1001A0002F312E3100506F7374696E6720796F752F
:1001B00072207661726961626C657300005EBCE2F8
:1001C000613FDD83C29C7E20A3FD1F419DC3217F33
:1001D000FCA2401E5F01E3BD3E6082DC237D9FC127
:1001E000421CFEA0E1BF5D0380DE3C62BEE0025C1B
:1001F000DF81633D7C22C09E1D43A1FF4618FAA407
:1002000027799BC584DA3866E5BB5907DB856739F2
:10021000BAE406581947A5FB7826C49A653BD987E6
:10022000045AB8E6A7F91B45C6987A24F8A6441ADA
:1002300099C7257B3A6486D85B05E7B98CD2306EC6
:10024000EDB3510F4E10F2AC2F7193CD114FADF3B2
:10025000702ECC92D38D6F31B2EC0E50AFF1134DA6
:10026000CE90722C6D33D18F0C52B0EE326C8ED09A
:10027000530DEFB1F0AE4C1291CF2D73CA94762886
:10028000ABF517490856B4EA6937D58B5709EBB572
:1002900036688AD495CB2977F4AA4816E9B7550B66
:1002A00088D6346A2B7597C94A14F6A8742AC8965A
:1002B000154BA9F7B6E80A54D7896B350000000042
:1002C0002300260029000404040404040404020298
:1002D00002020202030303030303010204081020C5
:1002E00040800102040810200102040810200000D0
:1002F0000000250028002B0000000008000201007B
:1003000000030407000000000000000000000000DF
:10031000240027002A0000407A10F35A00A0724EF1
:1003200018090010A5D4E80000E87648170000E49A
:100330000B54020000CA9A3B000000E1F5050000E2
:1003400080969800000040420F000000A086010047
:100350000000102700000000E80300000000640017
:10036000000000000A000000000001000000000082
:100370002C76D888DC674F0823DFC1DFAE59E1B1A6
:10038000B796E5E3E453C63AE651997696E8E6C2B5
:100390008426EB898C9B62ED407C6FFCEFBC9C9FBC
:1003A00040F2BAA56FA5F490055A2AF75C936B6CDE
:1003B000F9676DC11BFCE0E40D47FEF520E6B500D2
:1003C000D0ED902E0300943577050080841E080040
:1003D00000204E0A000000C80C333333330F986EF0
:1003E00012831141EF8D2114893BE65516CFFEE6AD
:1003F000DB18D1844B381BF77C1D901DA4BBE42473
:10040000203284725E228100C9F124ECA1E53D27EF
:10041000FE1C11241FBECFEFD8E0DEBFCDBF12E01F
:10042000A0E0B1E0EEEFFBE402C005900D92A2382F
:10043000B107D9F724E0A2E8B2E001C01D92A932C9
:10044000B207E1F712E0C9E0D2E004C02197FE0153
:100450000E94631EC830D107C9F70E94CB170C94C5
:10046000FD250C940000CF93DF931F92CDB7DEB72C
:100470006983DC01ED91FC910280F381E02D41E084
:1004800050E0BE016F5F7F4F09950F90DF91CF91D4
:100490000895DC01ED91FC91048CF58DE02D09951A
:1004A00091E089270895862F089581E08627089591
:1004B00080E3FB0180833296842F82958F7090E1D8
:1004C000899F401911244A3014F4405D01C0495CF1
:1004D0004293482F8111F0CF0895FC0184850C943C
:1004E0005C12CF93DF931F92CDB7DEB741E050E0AF
:1004F000BE016F5F7F4FFC0184850E945C1218165D
:1005000019061CF4898190E002C08FEF9FEF0F90D5
:10051000DF91CF910895FC018485843011F00C9413
:100520003A1280E090E0089544E050E0BC018FE092
:1005300090E00C94A80E08958CBD9DBD08958F92F7
:100540009F92AF92BF92CF92DF92EF92FF920F9362
:100550001F93CF936C015B017A01FC01C485C43009
:1005600041F481E090E0F6019383828380E090E0A3
:100570004EC08A014130584010F000E018E080E59C
:1005800090E00E949C028C2F0E9492174C0163E025
:1005900070E08C2F0E94DE10873111F08C3121F435
:1005A0008016910660F302C000E010E080E590E064
:1005B0000E949C029801A50160E070E08C2F0E94CF
:1005C0002D1760E270E08C2F0E94B51662E070E09B
:1005D0008C2F0E94DE1084FD10C063E070E08C2F31
:1005E0000E94DE10811104C08C2F0E94CE12B9CF60
:1005F00080E590E00E949C02E9CF40E162E070E07B
:100600008C2F0E94D410012B09F4ABCFC701CF91DE
:100610001F910F91FF90EF90DF90CF90BF90AF9020
:100620009F908F900895CF92DF92FF920F931F9328
:10063000CF93DF93FC012485243009F077C06A0151
:10064000EB018C01F12C8F2D0E949D13811103C0B1
:10065000F801F48607C08B7F8831D1F3F394F4E07E
:10066000FF12F1CFF8018485843009F45FC0209136
:100670000001309101012F5F3F4F11F420E030EC79
:10068000309301012093000140910001509101013C
:1006900020E061E00E94E212F801F4848A818F3F39
:1006A00051F48B818F3F91F48C818F3F79F48D8150
:1006B0008F3F61F438C0811109C08B81811106C060
:1006C0008C81811103C08D81882369F1C114D1040B
:1006D00051F180E590E00E949C02BE016E5F7F4F69
:1006E0008F2D90E0982F882744E050E0845F9B4F47
:1006F0000E94A80EB6018F2D0E943C1164E070E0AC
:100700008F2D0E94B516C8010E948D11873189F086
:1007100061E070E080E090E00E94E20CC8010E947D
:100720008D118111F0CF84E0F801848780E090E0A2
:1007300002C081E090E0DF91CF911F910F91FF9077
:10074000DF90CF9008952F923F924F925F926F92D9
:100750007F928F929F92AF92BF92CF92DF92EF9251
:10076000FF920F931F93CF93DF93CDB7DEB76597BB
:100770000FB6F894DEBF0FBECDBF7C016B013A010E
:10078000FB0120E080E090E06AE03191332309F141
:1007900040ED430F4A3080F4689FA001699F500DDF
:1007A0001124CA01C097830F911D37FD9A958F3F81
:1007B000910559F350F313C03E3289F4233079F098
:1007C000D301A20FB11D12968C932F5F80E090E0B1
:1007D000DCCF233021F4F301858381E021C0F701D0
:1007E00042815381648175818091A6039091A70312
:1007F000A091A803B091A903481759076A077B077E
:1008000009F49EC10E941C0D8701085F1F4F6F7085
:1008100077277C5FC8010E948410813019F080E046
:1008200090E0F3C188EB91E09A838983F70182819C
:100830009381A481B5818B839C83AD83BE8345E383
:1008400050E0BE016F5F7F4FC8010E944D11892BA0
:1008500019F4C12CD12C6FC10E941C0DF7017783B4
:1008600066837627672776277A83698342E050E09C
:10087000BE016F5F7F4FC8010E94C40F81E090E00E
:100880009E878D8742E050E0BE01635F7F4FC801C5
:100890000E94C40F80E091E09E878D8742E050E087
:1008A000BE01635F7F4FC8010E94C40F1E861D8674
:1008B00042E050E0BE01635F7F4FC8010E94C40F59
:1008C00042E050E0BE01635F7F4FC8010E94C40F49
:1008D00042E050E0BE01635F7F4FC8010E94C40F39
:1008E0005601F5018081882311F1F6015F018191A4
:1008F000811115C045018C189D081814190494F431
:100900008F8641E050E0BE01615F7F4FC8010E94C9
:10091000C40FA401B601C8010E94C40F03C08E32E7
:1009200029F7E8CF6501FFEFCF1ADF0ADACF1F867C
:1009300041E050E0BE01615F7F4FC8010E94C40FDB
:10094000C12CDD24D394DE86CD8642E050E0BE018A
:10095000635F7F4FC8010E94C40FDE86CD8642E0F0
:1009600050E0BE01635F7F4FC8010E94C40FC80101
:100970000E940411892B09F46CCF63E0A62EB12CE0
:10098000F2E06F0E711C0E941C0D1B012C01C801AE
:100990000E946B0F18161906A4F00E941C0DDC01B2
:1009A000CB0182199309A409B50989389341A1059E
:1009B000B105D0F462E370E080E090E00E94E20CC8
:1009C000E6CFF7014281538164817581808D918DDD
:1009D000A28DB38D481759076A077B0741F4848DB0
:1009E000958DC59721F406C02FEF3FEF9AC02EEFEB
:1009F0003FEF97C0F70181A192A10C970CF4A6C01C
:100A00004CE050E0BE016F5F7F4FC8010E94AF1203
:100A10008B8190E0982F88272C81822B9A8B898B51
:100A2000298130E0322F22274A81242BF701468189
:100A300057814217530709F086C097FF84C08F7013
:100A40009270892B09F0DEC0CF80D12CDC2CCC2415
:100A50008885C82AC114D10409F4D1C0812C912CF5
:100A60008D8190E0982F88272E81822B88169906F9
:100A700008F46FC0812C912C41E050E0BE016D5E06
:100A80007F4FC8010E94AF128B89982F907C09F08C
:100A900093C0811186C08B898111EECF42E050E076
:100AA000BE01615F7F4FC8010E94AF1242E050E07B
:100AB000BE01635F7F4FC8010E94AF12C8010E9450
:100AC000420FC8010E94420FC8010E94420FC80194
:100AD0000E94420F42E050E0BE016F5E7F4FC801AE
:100AE0000E94AF128F8598898115914009F069C0E5
:100AF0002D853E853227232732272130310509F005
:100B000060C089899A898115944009F075C044E0D4
:100B100050E0B301C8012C8B3D8B0E94AF122C8991
:100B20003D896901F1E0AF1AB10829F02FEFC21633
:100B3000D20609F428CFC8010E946F10C60165C013
:100B40008EEF9FEF62C02CEF3FEFEBCF2DEF3FEF2B
:100B5000E8CF41E050E0BE01635F7F4FC8010E94D3
:100B6000AF128D85811113C08D858111F2CFC8011F
:100B70000E94420FC8010E94420FC8010E94420F0A
:100B8000C8010E94420FFFEF8F1A9F0A69CF8D851F
:100B90009FEF980F9D87882339F3C8010E94420F69
:100BA000F6CF8B899FEF980F9B8B882309F473CF27
:100BB000C8010E94420FF5CFC8010E94420F1B8A54
:100BC0006ACF412C512C89899A899827892798279F
:100BD0004816590638F4C8010E94420F8FEF481A90
:100BE000580AF1CFEFEF8E1A9E0A8C149D0409F07B
:100BF00043CF26EF3FEF95CF27EF3FEF92CF2AEF7E
:100C00003FEF8FCF2BEF3FEF8CCF65960FB6F89469
:100C1000DEBF0FBECDBFDF91CF911F910F91FF902F
:100C2000EF90DF90CF90BF90AF909F908F907F908C
:100C30006F905F904F903F902F900895CF92DF92EA
:100C4000EF92FF920F931F93CF93DF93CDB7DEB751
:100C5000AF970FB6F894DEBF0FBECDBF7C016A011F
:100C600008EB11E01A8309831C861B8688EE93E04B
:100C7000A0E0B0E08D879E87AF87B88B8AE391E0D4
:100C80009A878987188F0F8B198E1A8E1B8E1C8E50
:100C900084E089A31DA30CA31EA21FA218A619A657
:100CA00080919E0390919F03A091A003B091A10316
:100CB0008CA79DA7AEA7BFA78B839C83AD83BE8364
:100CC00018861F82AE014C5D5F4FCE0101960E94D7
:100CD000A30381309105B1F4D701ED91FC91048417
:100CE000F585E02D1BA70AA78EA19FA1A8A5B9A5F0
:100CF0008CA79DA7AEA7BFA7A601BE01665D7F4FCB
:100D0000C7010995AF960FB6F894DEBF0FBECDBFF1
:100D1000DF91CF911F910F91FF90EF90DF90CF90D7
:100D200008952F923F924F925F926F927F928F928F
:100D30009F92AF92BF92CF92DF92EF92FF920F936A
:100D40001F93CF93DF93CDB7DEB7E3970FB6F89439
:100D5000DEBF0FBECDBF7C011A012B0139010E94FD
:100D60001C0D4B015C0187010D5B1F4FC8010E94E8
:100D70006B0F18161906A4F00E941C0DDC01CB01A4
:100D800088199909AA09BB09281639064A065B067B
:100D9000D8F062E370E080E090E00E94E20CE6CFE1
:100DA00042E250E0BE016F5F7F4FC8010E94AF1268
:100DB0008981823011F080E061C1F80184899589D0
:100DC00083349105C1F702C08FEF58C16D817E81D8
:100DD0008F8198850E94481E4B015C01F30160835E
:100DE00071838283938346E050E0B701685F7F4F51
:100DF000CE014D960E94DE1F892BE9F6F701808116
:100E00009181A281B38188169906AA06BB0698F241
:100E100084819581A681B78188159905AA05BB05AE
:100E200050F289899A89AB89BC8986879787A08B7C
:100E3000B18B8EECA82EB12CC8010E94420FF1E0BC
:100E4000AF1AB108C9F719A6670182E2C80ED11C12
:100E5000F701B696FBA7EAA7C7018A969DA78CA7BC
:100E60003C974F0189969FA78EA73897F9ABE8ABBF
:100E70001701F6E12F0E311CC5979BAB8AABF80129
:100E8000818D928D181619060CF0F7C0C8010E94CA
:100E9000420F8333910509F4CBC0FCF481309105F6
:100EA000C9F11CF4892B59F3DCC083309105D1F1D1
:100EB000069709F0D6C0C8010E94420F5C0144E0C9
:100EC00050E06AA97BA9C8010E94AF12412C512CA5
:100ED000BB24F4E0AF1AB10840C08A33910509F48D
:100EE0007BC03CF48533910569F0C69709F440C096
:100EF000B8C08B33910509F485C08F3F910509F483
:100F0000BECFAFC0C8010E94420FC8010E94420F6D
:100F100089A7B5CFC8010E94420F44E050E068A9FC
:100F200079A93AC0C8010E94420F5C0144E050E038
:100F3000B101C8010E94AF12412C512CBB2494E096
:100F4000A91AB1084A145B040CF099CFC8010E9499
:100F5000420FEFEF4E1A5E0AF5CF4A145B040CF015
:100F60008ECFC8010E94420F8FEF481A580AF5CF62
:100F7000C8010E94420FB82EF701828D811110C066
:100F8000838D81110DC0848D81110AC0858D8111E1
:100F900007C044E050E0B401C8010E94AF126FCF17
:100FA000EEA5FFA54080518062807380B401CE0120
:100FB00083960E943E0C8DA19EA1AFA1B8A5841579
:100FC0009505A605B70529F3BB2009F458CFC8013C
:100FD0000E94420FBA94F8CFC8010E94420F44E029
:100FE00050E06AA57BA5C8010E94AF12F70166A177
:100FF00077A180A591A50E94481E66A377A380A72C
:1010000091A73DCFC8010E94420F44E050E06CA57B
:101010007DA5C8010E94AF12F70162A573A584A542
:1010200095A50E94481E62A773A784A795A727CFFE
:10103000C8010E94420F44E050E0B601C8010E947E
:10104000AF12F70162A173A184A195A10E94481E6D
:1010500062A373A384A395A366A777A780AB91AB84
:101060000ECFC8010E94420FB82EBB2009F407CF53
:10107000C8010E94420FBA94F8CF89A5E3960FB633
:10108000F894DEBF0FBECDBFDF91CF911F910F91BE
:10109000FF90EF90DF90CF90BF90AF909F908F9098
:1010A0007F906F905F904F903F902F9008957F9228
:1010B0008F929F92AF92BF92CF92DF92EF92FF9268
:1010C0000F931F93CF93DF93CDB7DEB7A6970FB6DD
:1010D000F894DEBF0FBECDBF8C01762E942E852EE8
:1010E00020E2B22ECE0101967C01FC012B2D119243
:1010F0002A95E9F788EB91E09AA389A38FEF8BA358
:101100008CA38DA38EA3680183E4C80ED11C43E495
:1011100050E0BE016F5D7F4FC6010E944D110196E8
:1011200009F4BFC081E089838A8386E0A82EAB8260
:101130001C82F80164817581868197810E94481E16
:101140006D837E838F83988789869A8680E890E076
:101150009C878B874CE150E0B701C6010E94C40F09
:10116000F7012B2D11922A95E9F7480188E0880EA6
:10117000911CF401D70101900D92AA94E1F740E18E
:1011800050E0B701C6010E94C40FF7011192BA9452
:10119000E9F796E0A92EB12C40E250E0B701C60174
:1011A0000E94C40FF1E0AF1AB108B1F783E689835A
:1011B00092E89A8393E59B838C8385E38D8381E01A
:1011C0008E837F829DE3988797E099878A8786E060
:1011D000F401DE011B9601900D928A95E1F78CE0F7
:1011E000898B8A8B60EC71E0CE0143960E94F41FDC
:1011F000F8014385BE01675E7F4FC8010E94580217
:10120000F8014485BE01655E7F4FC8010E94580207
:10121000F8014585BE01635E7F4FC8010E945802F8
:101220004EE150E0B701C6010E94C40FF3E07F1207
:101230001EC082E3898384E08A83F80196859B83BC
:1012400097859C8390899D8391899E8396E39F8354
:101250008887828D8987838D8A87848D8B87858D0A
:101260008C874CE050E0B701C6010E94C40F87E3B1
:10127000898386E08A8391E09B8393E09C838D83BE
:101280008FE08E838AE38F838BE388878FEF898754
:1012900049E050E0B701C6010E94C40FC6010E9498
:1012A0000411A6960FB6F894DEBF0FBECDBFDF9136
:1012B000CF911F910F91FF90EF90DF90CF90BF9053
:1012C000AF909F908F907F9008950E94D91F0895AE
:1012D000CF92DF92EF92FF920F931F93CF93DF9302
:1012E0006C017A018B01C0E0D0E0CE15DF0589F0FA
:1012F000D8016D918D01D601ED91FC910190F081A5
:10130000E02DC6010995892B11F47E0102C02196BA
:10131000ECCFC701DF91CF911F910F91FF90EF901C
:10132000DF90CF900895FC01918D828D981761F028
:10133000828DDF01A80FB11D5D968C91928D9F5F0C
:101340009F73928F90E008958FEF9FEF0895FC01B7
:10135000918D828D981731F0828DE80FF11D858D6A
:1013600090E008958FEF9FEF0895FC01918D228DFD
:10137000892F90E0805C9F4F821B91098F73992782
:1013800008958FEF92E00E94B50921E0892B09F4BE
:1013900020E0822F0895FC01848DDF01A80FB11D8C
:1013A000A35ABF4F2C91848D90E001968F7399279B
:1013B000848FA689B7892C93A089B1898C91806488
:1013C0008C93938D848D981306C00288F389E02D49
:1013D00080818F7D80830895EF92FF920F931F93FA
:1013E000CF93DF93EC0181E0888F9B8D8C8D9813D8
:1013F00005C0E889F989808185FD24C0F62E0B8D12
:1014000010E00F5F1F4F0F731127E02E8C8DE81235
:101410000CC00FB607FCFACFE889F989808185FFF7
:10142000F5CFCE010E94CB09F1CF8B8DFE01E80FE5
:10143000F11DE35AFF4FF0820B8FEA89FB8980810F
:10144000806207C0EE89FF896083E889F98980811D
:101450008064808381E090E0DF91CF911F910F91B4
:10146000FF90EF900895CF93DF93EC01888D882350
:10147000C9F0EA89FB89808185FD05C0A889B98901
:101480008C9186FD0FC00FB607FCF5CF808185FFDC
:10149000F2CFA889B9898C9185FFEDCFCE010E944A
:1014A000CB09E7CFDF91CF91089580E090E0892BC1
:1014B00029F00E94C10981110C94000008953FB7E2
:1014C000F8948091F1029091F202A091F302B09110
:1014D000F40226B5A89B05C02F3F19F00196A11D67
:1014E000B11D3FBFBA2FA92F982F8827820F911DBA
:1014F000A11DB11DBC01CD0142E0660F771F881F01
:10150000991F4A95D1F7089508950F931F93CF938C
:10151000DF93EC0188819981009729F02A813B8132
:101520002617370788F48B016F5F7F4F0E940F1FCC
:10153000009761F0998388831B830A832C813D8106
:10154000232B11F4FC01108281E001C080E0DF91C7
:10155000CF911F910F910895EF92FF920F931F93D8
:10156000CF93DF93EC017B018A01BA010E94850AC7
:101570002881398181110DC02115310519F0C9016A
:101580000E94B020198218821D821C821B821A823E
:1015900006C01D830C83B701C9010E94F41FCE0150
:1015A000DF91CF911F910F91FF90EF900895EF92EF
:1015B000FF920F931F93CF93DF93FC01248135811A
:1015C0006115710511F480E019C041155105A9F0AC
:1015D0007B01EC018A01020F131FB8010E94850AEA
:1015E000882389F3288139818C819D81B701820FFD
:1015F000931F0E94F41F1D830C8381E0DF91CF9124
:101600001F910F91FF90EF9008956115710551F0B2
:10161000FB0101900020E9F73197AF01461B570B02
:101620000C94D70A80E00895CF93DF93EC01611505
:10163000710559F0FB0101900020E9F73197AF01E6
:10164000461B570B0E94AC0A0CC0888199810097F9
:1016500011F00E94B020198218821D821C821B8208
:101660001A82CE01DF91CF910895FC011182108280
:1016700013821282158214826115710551F0FB01EB
:1016800001900020E9F73197AF01461B570B0C94EE
:10169000AC0A0895EF92FF920F931F93CF93DF93BD
:1016A0008C017B01C0E0D0E0F701EC0FFD1F6491DD
:1016B000662361F0D801ED91FC910190F081E02D5D
:1016C000C8010995892B11F02196EECFCE01DF914B
:1016D000CF911F910F91FF90EF90089561157105C3
:1016E00079F0FB0101900020E9F73197AF01461B2B
:1016F000570BDC01ED91FC910280F381E02D099400
:1017000080E090E008954F925F926F927F92EF9207
:10171000FF920F931F93CF93DF93CDB7DEB7A197BF
:101720000FB6F894DEBF0FBECDBF7C01FA01CB012E
:1017300019A2223008F42AE08E010F5D1F4F422EBD
:10174000512C612C712CBF01A30192010E94CC2568
:10175000F901CA01015011096A3014F4605D01C039
:10176000695CD8016C93232B242B252B61F7B801DE
:10177000C7010E946E0BA1960FB6F894DEBF0FBE94
:10178000CDBFDF91CF911F910F91FF90EF907F9090
:101790006F905F904F9008958F929F92AF92BF92FB
:1017A000CF92DF92EF92FF920F931F93CF93DF932D
:1017B0007C01EB016C0182E0C80ED11C4701E5E021
:1017C0008E0E911C00E010E0F60141916F0150E097
:1017D00060E070E02AE0CE010E94830B5C01E881AA
:1017E000F9810190F081E02D6EE2CE0109958A0D1C
:1017F0009B1D080F191FC814D90431F7F701458143
:1018000050E060E070E02AE0CE010E94830B800F80
:10181000911FDF91CF911F910F91FF90EF90DF907B
:10182000CF90BF90AF909F908F90089560E672E048
:101830000C946E0B0F931F93CF93DF93EC010E94D8
:101840006E0B8C01CE010E94160C800F911FDF9150
:10185000CF911F910F9108950F931F93CF93DF9313
:10186000EC010E944A0B8C01CE010E94160C800FE5
:10187000911FDF91CF911F910F91089528EB31E0D7
:10188000FC0131832083FB0140815181628173819E
:10189000FC01428353836483758308951F920F92E2
:1018A0000FB60F9211242F933F934F935F936F9333
:1018B0007F938F939F93AF93BF93EF93FF938FEF9C
:1018C00092E00E94CB09FF91EF91BF91AF919F9160
:1018D0008F917F916F915F914F913F912F910F90D9
:1018E0000FBE0F901F9018951F920F920FB60F9278
:1018F00011242F938F939F93EF93FF93E0910F0306
:10190000F09110038081E0911503F091160382FDA0
:1019100012C09081809118038F5F8F7320911903FB
:10192000821751F0E0911803F0E0E150FD4F958FE0
:101930008093180301C08081FF91EF919F918F9157
:101940002F910F900FBE0F901F901895CF93DF939C
:1019500090E0FC01E652FD4F2491FC01EA53FD4F5B
:101960008491882361F190E0880F991FFC01E45F66
:10197000FC4FC591D491FC01E251FD4FA591B4916A
:10198000611109C09FB7F8948881209582238883CC
:10199000EC912E230BC0623061F49FB7F89438812C
:1019A000822F809583238883EC912E2B2C939FBFCD
:1019B00006C08FB7F894E8812E2B28838FBFDF9164
:1019C000CF9108958F929F92AF92BF92CF92DF9264
:1019D000EF92FF926B017C010E945F0A4B015C0158
:1019E000C114D104E104F104F1F00E945F0ADC01AA
:1019F000CB0188199909AA09BB09883E9340A10522
:101A0000B10570F321E0C21AD108E108F10888EEAF
:101A1000880E83E0981EA11CB11CC114D104E104FE
:101A2000F10419F7DDCFFF90EF90DF90CF90BF90DA
:101A3000AF909F908F9008952FB7F8946091ED022A
:101A40007091EE028091EF029091F0022FBF089505
:101A50001F920F920FB60F9211242F933F938F93E3
:101A60009F93AF93BF938091ED029091EE02A0916E
:101A7000EF02B091F0023091EC0223E0230F2D37FA
:101A800020F40196A11DB11D05C026E8230F029682
:101A9000A11DB11D2093EC028093ED029093EE0204
:101AA000A093EF02B093F0028091F1029091F202C4
:101AB000A091F302B091F4020196A11DB11D809393
:101AC000F1029093F202A093F302B093F402BF915B
:101AD000AF919F918F913F912F910F900FBE0F90DB
:101AE0001F901895FC0190810180F281E02DF894FF
:101AF0008181892B81832281892F809528232283CC
:101B0000A7E0B0E01197F1F7218182238183A3E25E
:101B1000B0E01197F1F780817894EFECF0E0319725
:101B2000F1F7982381E009F480E00895FC019081A9
:101B30000180F281E02D892F809560FF12C0F8941A
:101B40002281822382838181892B8183A3E2B0E079
:101B50001197F1F78281982B9283789487ED90E02A
:101B600011C0F8942281822382838181892B818311
:101B7000AFEFB0E01197F1F78281982B92837894C0
:101B80008FE090E00197F1F70895CF92DF92EF9206
:101B9000FF920F931F93CF93DF931F92CDB7DEB7C2
:101BA0006C01E62E08E010E0FF24F39461E08F2D35
:101BB0008E2109F460E0C60149830E94960DFF0C56
:101BC0000150110949810115110581F7411115C015
:101BD000F894D6011196ED91FC91129791818C9118
:101BE0008095892381831196ED91FC9112979281C2
:101BF0008C9180958923828378940F90DF91CF9187
:101C00001F910F91FF90EF90DF90CF900895FC010E
:101C100090810180F281E02DF8948181292F209517
:101C20008223818378948DE743E050E0815021F155
:101C3000DA011197F1F730813923C1F3F8948281E9
:101C4000822382838181892B81837894ABE7B7E0FB
:101C50001197F1F7F894818128232183A3E1B1E062
:101C60001197F1F78081982381E009F080E0789462
:101C7000E3E6F6E03197F1F708952A9A08952A9855
:101C800008951F93CF93DF93182F66E270E00E94B0
:101C9000DE10C82FD0E067E270E0812F0E94DE10D6
:101CA000DC2FCC279E01282BC901DF91CF911F91FA
:101CB00008951F93CF93DF93182F60E270E00E9486
:101CC000DE10C82FD0E061E270E0812F0E94DE10AC
:101CD000DC2FCC279E01282BC901DF91CF911F91CA
:101CE00008958EBD00000DB407FEFDCF8EB508959A
:101CF000CF92DF92EF92FF920F931F93CF93DF93D8
:101D0000EC017A018B016C01C40ED51ECC15DD05EA
:101D1000A9F00E943F0E8FE00E94710E8D2F0E944D
:101D2000710E8C2F0E94710E219680E00E94710E20
:101D3000F80181938F010E943D0EE8CFC701DF912A
:101D4000CF911F910F91FF90EF90DF90CF9008956A
:101D5000CF92DF92EF92FF920F931F93CF93DF9377
:101D6000EC017A018B016C01C40ED51ECC15DD058A
:101D7000A1F00E943F0E80EF0E94710E8D2F0E94F5
:101D8000710E8C2F0E94710E2196F80181918F01A6
:101D90000E94710E0E943D0EE9CFC701DF91CF91E5
:101DA0001F910F91FF90EF90DF90CF9008951F93B8
:101DB000CF93DF9300D0CDB7DEB7182F6A83998316
:101DC0000E943F0E80EF0E94710E9981892F0E9420
:101DD000710E812F0E94710E6A81862F0E94710EF2
:101DE0000E943D0E81E00F900F90DF91CF911F91E7
:101DF0000895CF93DF931F92CDB7DEB76983DC01DF
:101E0000ED91FC910280F381E02D41E050E0BE01B4
:101E10006F5F7F4F09950F90DF91CF910895FC017F
:101E2000818D928D0895FC0184899589089528EB10
:101E300031E0FC0131832083FB01408951896289B3
:101E40007389FC0142835383648375830895DC01A5
:101E5000ED91FC91008CF18DE02D0994FC019485AD
:101E6000FB018485981303C081E0943009F480E07D
:101E7000089521E0FC018485843009F420E0822F5C
:101E8000089508950F931F93CF93DF931F92CDB7BB
:101E9000DEB7FC01218D328D232B61F08C0141E0F6
:101EA00050E0BE016F5F7F4F808D0E945C1218165C
:101EB00019061CF08FEF9FEF08C0F801818D928DFD
:101EC0000197928F818F898190E00F90DF91CF9160
:101ED0001F910F9108950F931F93CF93DF93CDB769
:101EE000DEB728970FB6F894DEBF0FBECDBF8C01CA
:101EF000F801818D928D892B49F0D801ED91FC91EB
:101F00000680F781E02DC8010995F2CF808D0E94EF
:101F10003A12181619065CF548E050E0BE016F5FF2
:101F20007F4FD80158968C910E945C129C01181624
:101F30001906DCF489819A81AB81BC81F801808B20
:101F4000918BA28BB38B8D8190E0982F88272E8167
:101F5000820F911D958B848B2F8130E0322F2227A9
:101F60008885280F311D328F218FC90102C080E082
:101F700090E028960FB6F894DEBF0FBECDBFDF917C
:101F8000CF911F910F910895AF92BF92CF92DF92A0
:101F9000FF920F931F93CF93DF938C015B01EA01B4
:101FA000FC01C688D788F08C80E590E00E949C02F6
:101FB0008F2D0E9492178C179D0720F48F2D0E9461
:101FC0009217EC019E01A501B6018F2D0E942D17DD
:101FD0000E949B02F801868997898C0F9D1F978B21
:101FE000868BCE01DF91CF911F910F91FF90DF90F3
:101FF000CF90BF90AF900895CF92DF92EF92FF9273
:102000000F931F93CF93DF93CDB7DEB7AF970FB684
:10201000F894DEBF0FBECDBF7C016A0108EB11E072
:102020001A8309831C861B8688EE93E0A0E0B0E04B
:102030008D879E87AF87B88B8AE391E09A878987DF
:10204000188F0F8B198E1A8E1B8E1C8E84E089A31D
:102050001DA30CA31EA21FA218A619A680919E0361
:1020600090919F03A091A003B091A1038CA79DA77D
:10207000AEA7BFA78B839C83AD83BE8318861F82C8
:10208000AE014C5D5F4FCE0101960E94A3038130EB
:102090009105B1F4D701ED91FC910088F189E02D13
:1020A0001BA70AA78EA19FA1A8A5B9A58CA79DA72C
:1020B000AEA7BFA7A601BE01665D7F4FC701099508
:1020C000AF960FB6F894DEBF0FBECDBFDF91CF91B4
:1020D0001F910F91FF90EF90DF90CF900895CF93D5
:1020E000DF93EC01888D843061F00E94CE12E88D80
:1020F000F0E0EE0FFF1FEB50FD4F1182108284E0E5
:10210000888FDF91CF910895EF92FF921F93CF9325
:10211000DF93FC01208D243011F080E01CC07B0196
:10212000EC0110E0812F0E949D13811102C0188FD5
:1021300005C08831E1F31F5F1430A1F7888D84302A
:1021400061F3FD86EC861A8E198E20E0A70162E00D
:102150000E94E21281E0DF91CF911F91FF90EF90FA
:1021600008950F931F93CF93DF931F92CDB7DEB7E0
:102170008C01DC01ED91FC910480F581E02D099545
:10218000892B51F0BE016F5F7F4FF80184850E945B
:102190000212898190E002C08FEF9FEF0F90DF91D4
:1021A000CF911F910F9108959B0190E00496982F75
:1021B0008827642F820F931F0C94D70E0F931F93C1
:1021C000CF93DF931F92CDB7DEB790E00496982FA0
:1021D00088278C01060F171F0E943F0E8FE00E9478
:1021E000710E812F0E94710E802F0E94710E80E06F
:1021F0000E94710E89830E943D0E89810F90DF91AC
:10220000CF911F910F910895CF93FC01C08D80E570
:1022100090E00E949C0260E270E08C2F0E94B51654
:1022200062E070E08C2F0E94DE1084FD19C062E035
:1022300070E08C2F0E94DE1083FF0BC048E162E04B
:1022400070E08C2F0E94D4100E949B0280E090E0EE
:1022500011C00E949B0280E590E00E949C02E0CFAA
:1022600040E162E070E08C2F0E94D4100E949B023B
:1022700081E090E0CF910895CF93DF93C82FD62FC0
:10228000472F60E170E00E94D4104D2F61E170E0B3
:102290008C2FDF91CF910C94D410FF920F931F934A
:1022A000CF93DF93FB01DC0157961C921E92569749
:1022B0005896FC908281811109C08381811106C0EA
:1022C0008481811103C085818823F9F0411551056E
:1022D000E1F08A01EF0180E590E00E949C02BE01DE
:1022E0006E5F7F4F2F2D30E0922F882744E050E023
:1022F000845F9B4F0E94A80EB8018F2D0E943C1155
:102300000E949B0281E090E002C080E090E0DF91BB
:10231000CF911F910F91FF900895FC018485843027
:1023200011F00C949D1380E00895CF93DF93FC018E
:1023300024852430D1F0EC010E948D11843181F08C
:10234000882371F0883161F08C3161F4E881F98182
:102350000480F581E02DCE01099521E0892B19F447
:1023600020E001C021E0822F01C080E0DF91CF9109
:102370000895CF92DF92EF92FF921F93CF93DF9356
:10238000FC0114851430A9F1EC0180E590E00E9475
:102390009C0268E070E0812F0E94B5160E949B02AB
:1023A0000E941C0D6B017C01CE010E948D118823BF
:1023B000B1F061E070E080E090E00E94E20C0E94E9
:1023C0001C0DDC01CB018C199D09AE09BF09883EAB
:1023D0009340A105B10540F38C850E94CE12EC8597
:1023E000F0E0EE0FFF1FEB50FD4F1182108284E0F2
:1023F0008C87DF91CF911F91FF90EF90DF90CF906E
:10240000089508951F93CF93DF9300D0CDB7DEB723
:10241000182F80E590E069837A830E949C0221E076
:1024200041E050E069817A81812F0E94C5160E94A7
:102430009B0281E090E00F900F90DF91CF911F9170
:102440000895CF93DF931F92CDB7DEB7FC01218DA6
:10245000328D232B49F0BE016F5F7F4F808D0E942C
:102460000212898190E002C08FEF9FEF0F90DF9101
:10247000CF910895FF920F931F93CF93DF93F82E80
:1024800080E590E00E949C02C0E0D0E08F2D0E9489
:10249000410E8C01892B21F08F2D0E94410EEC0101
:1024A000C017D10799F70E949B02CE01DF91CF910F
:1024B0001F910F91FF900895AF92BF92CF92DF923C
:1024C000EF92FF921F93CF93DF93182F5B017A0156
:1024D00080E590E00E949C02C0E0D0E0812F0E9445
:1024E000410E6C01892B21F0812F0E94410EEC01DD
:1024F000CC15DD0599F7209799F463E070E0812F02
:102500000E94DE108431F1F08823E1F0C1E0D0E0D8
:102510008C3111F4C0E0D0E0D195C195D10912C041
:10252000EC16FD060CF4E7011C161D065CF420E019
:10253000AE01B501812F0E94C51660E470E0812FC5
:102540000E94B5160E949B02CE01DF91CF911F9190
:10255000FF90EF90DF90CF90BF90AF900895CF9312
:10256000DF93FC01218D328D2115310519F48FEF98
:102570009FEF11C0EC014217530708F0A901888DA5
:102580000E945C121816190694F7298D3A8D281BA3
:10259000390B3A8F298FDF91CF910895CF93C82FB0
:1025A00080E590E00E949C0260E170E08C2F0E9428
:1025B000B5164FEF62E070E08C2F0E94D410CF91DF
:1025C0000C949B02FF920F931F93CF93DF9300D045
:1025D000CDB7DEB7F82E8A012A8369830E94CE1216
:1025E00080E590E00E949C022A816981462F422B5F
:1025F00060E070E08F2D0E94D4100115110551F498
:102600000091FD021091FE020F5F1F4F1093FE021A
:102610000093FD02412F64E070E08F2D0E94D410E2
:10262000402F65E070E08F2D0E94D41061E070E0D3
:102630008F2D0E94B5160E949B0281E00F900F9093
:10264000DF91CF911F910F91FF900895BF92CF928C
:10265000DF92EF92FF920F931F93CF93DF9300D0FF
:1026600000D000D0CDB7DEB7FC01208D243009F0BA
:1026700053C06A017B018C01B12C63E070E08B2DAB
:102680000E94DE10811103C0F801B08E06C08831AF
:10269000D9F3B394F4E0BF12F0CFF801808D843009
:1026A000D9F196E0ECE5F1E0DE01119601900D9292
:1026B0009A95E1F7F70193819F779C8394819D839D
:1026C00095819E83B7016E5F7F4F90E0982F88279A
:1026D00044E050E0845F9B4F0E94A80EB601F801D1
:1026E000808D0E943C11F801808D90E0982F882702
:1026F00046E050E0BE016F5F7F4F8A5F9B4F0E94B4
:10270000A80EF801128E118E20E8A60162E0808DDD
:102710000E94E21281E001C080E026960FB6F89494
:10272000DEBF0FBECDBFDF91CF911F910F91FF9004
:10273000EF90DF90CF90BF9008951F93CF93DF93DA
:102740001F92CDB7DEB7182F80E590E00E949C0263
:1027500063E070E0812F0E94DE1089830E949B025B
:1027600089810F90DF91CF911F9108956F927F9291
:102770008F929F92AF92BF92CF92DF92EF92FF9291
:102780000F931F93CF93DF93CDB7DEB762970FB64A
:10279000F894DEBF0FBECDBF0091C8031091C903EE
:1027A000D8011B961C921B971D961C921D971C9678
:1027B0001C92F8013B966801B3E0CB0ED11C12923B
:1027C000EC15FD05E1F7C8010E94070E882309F406
:1027D0005DC040E060EFC8010E94C50DEE24E394A7
:1027E000B12CA12CFF24F394C8010E94720D682F14
:1027F000C8016A8B0E94720D6A89613019F48130B8
:10280000D1F437C02B2D30E068131EC0D8011B96C1
:102810008C91F81638F4F801E20FF31F83818E21B2
:1028200051F402C0F81639F060E0B8E0BF1558F076
:10283000F801F48608C0F801EB0DF11D83818E29A3
:10284000838361E009C0AF2CF801E20FF31F93818D
:102850008E2D809589238383C8010E94960DF39461
:10286000EE0C19F4B394EE24E394F7E0FB1508F0B2
:10287000BBCF40E44F1550F4D8011B96AC921B9788
:10288000A11009C081E01D968C9305C0F801138644
:102890001586148623C0D80113968C918823B1F332
:1028A0008E01065F1F4FCE014296F801D6012D9191
:1028B0006D012193E817F907C9F7D801E0E0F02E80
:1028C00087E0800F8A1739F09D91E927F0E0E45402
:1028D000FE4FE491F7CF8989E81729F060E070E0B6
:1028E0008EEF92EC9FC08091C8039091C9030E9423
:1028F000070E882309F445C0C090C803D090C903CF
:1029000040E065E5C6010E94C50DB8E0FB0EF80188
:1029100061918F0140E0C6010E94C50DF012F7CF12
:1029200040E06EEB8091C8039091C9030E94C50DF1
:102930008E010F5F1F4F6801F02EA9E08A2E800ED6
:102940006090C8037090C903F8E0AF2EB12C9924B1
:102950009394E12CC3010E94720D8111E928990C16
:10296000F1E0AF1AB108B1F7D601ED926D018A120C
:10297000E7CF8091C8039091C9030E94070E813070
:1029800019F060E874EE3DC0E0E088E08F0D80173C
:1029900049F0D8019D918D01E927F0E0E454FE4F04
:1029A000E491F5CF8985E813ECCF6981B8E06B9F9E
:1029B000B00111248A81282F30E0322F2227330FD3
:1029C000330F330F262B372B8A858031C9F4688566
:1029D00070E08F81FB01E81BF109CF019695982FDC
:1029E0008827979587950E94341E60517109207F32
:1029F00053E0220F331F5A95E1F7620F731F01C096
:102A0000B9016138F4EE7F070CF468CF072E000C93
:102A1000880B990B0E94462420E030E040E05CE304
:102A20000E94A52462960FB6F894DEBF0FBECDBFFC
:102A3000DF91CF911F910F91FF90EF90DF90CF909A
:102A4000BF90AF909F908F907F906F9008958091EE
:102A5000C8039091C9030E94070E40E06CEC80917E
:102A6000C8039091C9030E94C50D4091C30364E45B
:102A70008091C8039091C9030E94C50D8091C50340
:102A80008823A9F0E091C403E950E33040F4F0E07A
:102A9000EE0FFF1FEE59FE4F6081718102C06EEE96
:102AA00072E0072E000C880B990B0C94E20C089531
:102AB000CF936CE271E080E090E00E94E20CCFB72F
:102AC000F89480912404811166C080ED92E0FC01AD
:102AD000249144EE52E0FA01649130E0220F331F5A
:102AE000245F3C4FF901A591B4912C91622309F028
:102AF00040C0E2E0F3E02491FA014491FC0194919A
:102B00009923B9F1222339F1233091F038F421309F
:102B1000A9F0223001F584B58F7D12C0273091F0E5
:102B20002830A1F02430B9F4809180008F7D03C05B
:102B3000809180008F77809380000DC084B58F775F
:102B400084BD09C08091B0008F7703C08091B00030
:102B50008F7D8093B000E92FF0E0EE0FFF1FE25170
:102B6000FD4FA591B4918FB7F8949C91492B4C934C
:102B70008FBF61E08AE00E94A60C8CB580618CBD9D
:102B80008CB580648CBD61E08DE00E94A60C61E094
:102B90008BE00E94A60C809124048F5F8093240414
:102BA000CFBF229A80E590E00E949C0260E880E01E
:102BB00090E00E94D70E65E58BE190E00E94D70E71
:102BC00065E58AE190E00E94D70E0E949B0280E0BA
:102BD00090E4909315048093140480E090E6909321
:102BE0001D0480931C0480E098E490931704809364
:102BF000160480E098E690931F0480931E0480E002
:102C000090E5909319048093180480E090E79093E6
:102C100021048093200480E098E590931B04809326
:102C20001A0480E098E79093230480932204CF91C4
:102C300008951F93CF93DF93CDB7DEB7C254D10968
:102C40000FB6F894DEBF0FBECDBFFC018281938129
:102C5000A481B58123968CAF9DAFAEAFBFAF239754
:102C600011E023961FAF239723964CAD5DAD6EAD5B
:102C70007FAD23974BAB5CAB6DAB7EAB8DA79EA7B7
:102C8000AFA7B8AB18AB4DA55EA56FA578A94FA3AC
:102C900058A769A77AA71EAB4BA95CA96DA97EA905
:102CA00049A35AA36BA37CA328EB31E03C8B2B8B6D
:102CB0004FEF4D8B4E8B4F8B188E3E872D871AA76B
:102CC0004FA158A569A57AA54F87588B698B7A8B38
:102CD0001CA349A15AA16BA17CA149875A876B8784
:102CE0007C873A8329838B839C83AD83BE830E9438
:102CF000581580E590E00E949C0246E050E062E0BA
:102D000071E089E090E00E94A80ECE0103960E9437
:102D1000940244E050E0BE01615F7F4F81E090E0AB
:102D20000E94A80E44E050E0BE016B5E7F4F85E03C
:102D300090E00E94A80E0E949B021C8789859A85BC
:102D4000AB85BC8580939E0390939F03A093A003C3
:102D5000B093A103CE5BDF4F0FB6F894DEBF0FBE7A
:102D6000CDBFDF91CF911F910895CF93C82F462FEC
:102D700061E070E00E94D41061E070E08C2F0E944E
:102D8000DE108111F9CFCF9108958F929F92AF926B
:102D9000BF92CF92DF92EF92FF920F931F93CF9348
:102DA000DF93B82E4B018A01A22E68E270E00E94E8
:102DB000DE10C82FD0E069E270E08B2D0E94DE109B
:102DC000DC2FCC27C82B9E013770CB2CD12CC60111
:102DD000880F991FAC01445E5B4F6A01FA01808144
:102DE0009181820F931FA801420F531F4130584019
:102DF00098F060E078E07B01E21AF30AA701B401E1
:102E00000E94780EA8014E195F09B4016E0D7F1D56
:102E1000F6018081918102C0A801B4010E94780E60
:102E2000A1100EC0C00FD11F4D2F68E270E08B2D96
:102E30000E94D4104C2F69E270E08B2D0E94D410B8
:102E4000DF91CF911F910F91FF90EF90DF90CF9086
:102E5000BF90AF909F908F9008959F92AF92BF9236
:102E6000CF92DF92EF92FF920F931F93CF93DF9356
:102E7000982E8B015A01690164E270E00E94DE1015
:102E8000E82EF12C65E270E0892D0E94DE10FE2C08
:102E9000EE24E82AE701C00FD11F9E013770E92C0C
:102EA000F12CC701880F991FAC014C5E5B4F7A0172
:102EB000FA0180819181820F931FA9014C0D5D1D44
:102EC0004130584090F000E018E0021B130BA801BD
:102ED000B5010E94A80EA601401B510BB501600F61
:102EE000711FF7018081918102C0A601B5010E9486
:102EF000A80ECC0DDD1D4D2F64E270E0892D0E94DF
:102F0000D4104C2F65E270E0892DDF91CF911F9195
:102F10000F91FF90EF90DF90CF90BF90AF909F9078
:102F20000C94D410FF920F931F93CF93DF93F82E3E
:102F3000C0E0D0E08F2D0E94590E8C01892B21F02A
:102F40008F2D0E94590EEC01C017D10799F7CE01C1
:102F5000DF91CF911F910F91FF900895CF93DF9351
:102F6000E091B003F091B103DC0114964D915C91B6
:102F700015976D917C910280F381E02D80EB93E0B9
:102F80000995EC0180EB93E00E94160C8C0F9D1FBD
:102F9000DF91CF910895CF93DF93CDB7DEB7E3975D
:102FA0000FB6F894DEBF0FBECDBF789484B58260B3
:102FB00084BD84B5816084BD85B5826085BD85B5DD
:102FC000816085BD80916E00816080936E0010925B
:102FD00081008091810082608093810080918100D6
:102FE0008160809381008091800081608093800067
:102FF0008091B10084608093B1008091B0008160C5
:103000008093B00080917A00846080937A008091F0
:103010007A00826080937A0080917A008160809348
:103020007A0080917A00806880937A001092C100C3
:10303000E0910F03F091100382E08083E0910B0395
:10304000F0910C031082E0910D03F0910E038FECD0
:10305000808310921703E0911303F091140386E02C
:103060008083E0911103F09112038081806180835D
:10307000E0911103F0911203808188608083E091D8
:103080001103F0911203808180688083E091110325
:10309000F091120380818F7D80838091E002811105
:1030A0002AC01092C8021092C70288EE93E0A0E0F6
:1030B000B0E08093C9029093CA02A093CB02B09370
:1030C000CC028AE391E09093C6028093C50288EB1C
:1030D00091E09093D4028093D3021092D502109283
:1030E000D6021092D7021092D80284E08093DD02BB
:1030F00081E08093E00282E892E09093A3038093C2
:10310000A2030E94581580E590E00E949C0246E0D0
:1031100050E062E071E089E090E00E94A80E88EB48
:1031200091E09A8389831B821C821D821E82CE01BC
:1031300003960E9494020E949B020091A2031091A8
:10314000A303D80192961D921D921D921C929597F1
:10315000F80116A217A210A611A69A961D921D920A
:103160001D921C929D9780E69AEEA0E0B0E086AB9F
:1031700097ABA0AFB1AF80EA9FE0A0E0B0E082AF34
:1031800093AFA4AFB5AFD801189686E0FD01382FF4
:1031900011923A95E9F79801225F3F4F94E1F901C6
:1031A00011929A95E9F7E2E0F1E001900D928A958B
:1031B000E1F77801F2E4EF0EF11CD7011C920E94B6
:1031C00096212FEC37E040E050E00E946325DC01BF
:1031D000CB010196A11DB11DF80184839583A683BF
:1031E000B78380839183A283B3835801F3E4AF0E46
:1031F000B11CC5010E946F1064E470E0C5010E941B
:10320000841081111BC067EC71E08FEF92E00E9487
:103210001A0C88EB91E09A8389838091BF03909187
:10322000C003A091C103B091C2038B839C83AD8383
:10323000BE83CE0101960E94191684C10E941C0D06
:103240002B013C01812C912CD12C43E0342E52E0F7
:10325000C52ED7018C91833009F404C1811121C09E
:10326000F80184819581A681B7810196A11DB11DC8
:1032700084839583A683B7830E941C0D6419750906
:103280008609970928EE33E040E050E00E94CC2503
:10329000A90161E0C8010E94570881E0D7018C9321
:1032A000C3C0843001F5F80184819581A681B7817E
:1032B0000196A11DB11D84839583A683B7830E94C7
:1032C0001C0D641975098609970928EE33E040E062
:1032D00050E00E94CC25A90163E0C8010E94570874
:1032E000D701CC92A1C0813061F5F80142AD53AD58
:1032F00064AD75AD9E012F5F3F4FC8010E949106DE
:10330000D82EF2E08F1390C089819A81AB81BC8165
:10331000F80184839583A683B7830E941C0D6419EA
:1033200075098609970928EE33E040E050E00E94D5
:10333000CC25A90163E0C8010E945708D701DC929F
:1033400079C0823009F070C0F80142AD53AD64AD70
:1033500075AD9E012F5F3F4FC8010E949106D82E88
:10336000F5E08F135BC0D7013C92F80182A193A1D5
:10337000A4A1B5A1892B8A2B8B2B41F484E893E07F
:10338000A0E0B0E082A393A3A4A3B5A3F80186A113
:1033900097A1A0A5B1A5892B8A2B8B2B61F482A1C3
:1033A00093A1A4A1B5A1B695A7959795879586A356
:1033B00097A3A0A7B1A7F80182A593A5A4A5B5A539
:1033C000892B8A2B8B2BA9F482A193A1A4A1B5A14F
:1033D000AC01BD0123E076956795579547952A95F1
:1033E000D1F7841B950BA60BB70B82A793A7A4A7B5
:1033F000B5A7F80186A197A1A0A5B1A586A797A713
:10340000A0ABB1AB82A593A5A4A5B5A582AB93ABA8
:10341000A4ABB5AB88248394912C0CC0F6E08F1339
:1034200003C0D7011C9206C0BFEFDB1203C0F70137
:103430001082D12CF1E08F16910409F40ACF0E947A
:103440001C0DDC01CB0184199509A609B709F80107
:1034500026A937A940AD51AD281739074A075B07A0
:1034600008F0F7CEC5010E946F10F80184819581A4
:10347000A681B7810196A11DB11D84839583A68382
:10348000B7830E941C0DF801FE96608371838283CE
:103490009383F1E08F16910409F051C080E590E02C
:1034A0000E949C026091A2037091A303625F7F4F10
:1034B000CE0101960E943E0CCE0103960E9494021A
:1034C0006091A2037091A3036A5E7F4FCE010196C3
:1034D0000E943E0C44E050E0BE016D5F7F4F81E0F2
:1034E00090E00E94A80E6091A2037091A3036E5E0B
:1034F0007F4FCE0101960E943E0C44E050E0BE0199
:103500006D5F7F4F85E090E00E94A80E0E949B02B5
:103510006091A2037091A303625E7F4FCE0101967A
:103520000E943E0C8B819C81AD81BE8180939E0365
:1035300090939F03A093A003B093A10303C0892895
:1035400009F461CE0E9427150E94B61368E873E162
:1035500080E090E00E94E20C85E0A82E82E0B82E88
:103560000E9427150E94B6136093E8027093E90247
:103570008093EA029093EB026FEE71E08FEF92E09E
:103580000E946E0B0E94B6136B017C019B01AC0183
:103590000E940A1F882319F067EF71E01AC0260104
:1035A0003701E89477F82FEF3FEF4FE75FE7C3016C
:1035B000B2010E940A1F811111C02FEF3FEF4FE7A8
:1035C0005FE7C301B2010E943F2418163CF46BEF81
:1035D00071E08FEF92E00E946E0B84C02FEF3FEFFF
:1035E0004FE75FE4C701B6010E94051F18161CF4DF
:1035F0006FEF71E0EECF2FEF3FEF4FE75FECC701CA
:10360000B6010E943F2487FDF3CF20E030E0A901FE
:10361000C701B6010E943F2487FF0FC0E091FF025F
:10362000F09100030190F081E02D6DE28FEF92E0C8
:103630000995F7FAF094F7F8F0942AE037ED43EAA9
:103640005BE3C701B6010E946A1E2B013C010E9488
:10365000D61E6B017C010E9444249B01AC01C30176
:10366000B2010E94691E2B013C012AE0B701A601AC
:103670008FEF92E00E94830B63E072E08FEF92E0A5
:103680000E946E0B20E030E040E251E4C301B20141
:103690000E94A5242B013C010E94D61E6B01E12C47
:1036A000F12C2AE0B701A6018FEF92E00E94830B74
:1036B000C701B6010E9444249B01AC01C301B201C1
:1036C0000E94691E20E030E040E251E40E94A524FF
:1036D0000E94D61EAB0160E070E02AE08FEF92E01E
:1036E0000E94830B8FEF92E00E94160C4091E8023B
:1036F0005091E9026091EA027091EB028091AE0371
:103700009091AF032091AD03FC0136E0239FE00DC3
:10371000F11D1124B182A0822091AD03FC01A6E02D
:103720002A9FE00DF11D1124428353836483758326
:103730008091AD038F5F8093AD039091AC03981798
:1037400050F468E670E08FEF92E00E942C0C8091BC
:10375000AC038093AD0362E672E0CE018E960E94C8
:10376000350B62E672E0CE0188960E94350B6EE161
:1037700072E0CE018E960E94140BE12CF12CC12C2C
:10378000D12C8091AD0390E0C816D9060CF090C002
:10379000E091AE03F091AF03EE0DFF1D62817381E6
:1037A000848195811BA21AA21DA21CA21FA21EA287
:1037B0008E010F5F1F4F25E047E00E94FB1FBC01F9
:1037C000CE0182960E94140B88A599A50097A9F0B6
:1037D0006AA17BA16115710571F04AA55BA52EA1B7
:1037E0003FA14217530738F00E94F41F8EA19FA1FA
:1037F0009DA78CA712C00E94B0208AA19BA199A767
:1038000088A78CA19DA19BA78AA78EA19FA19DA7F8
:103810008CA71BA21AA21DA21CA21FA21EA28AA1D3
:103820009BA10E94B02060E272E0CE018E960E94C1
:10383000050BE091AE03F091AF03EE0DFF1D60812B
:103840007181CE0101960E94350B4D815E816981A7
:103850007A81CE018E960E94D70A89819A810E9430
:10386000B0206FE272E0CE018E960E94050B4CA54F
:103870005DA568A579A5CE018E960E94D70A6BE357
:1038800072E0CE018E960E94050BBFEFCB1ADB0AC9
:103890008091AD0390E0C816D90634F46DE372E070
:1038A000CE018E960E94050BE6E0EE0EF11C69CF6C
:1038B00060E472E0CE018E960E94050B0AA91BA956
:1038C00040E550E062E472E080EB93E00E941E0667
:1038D000892B09F460C065EA71E08FEF92E00E94E5
:1038E0002C0C6EE671E080EB93E00E942C0C65E5F9
:1038F00071E080EB93E00E942C0C64E371E080EBBC
:1039000093E00E942C0C65E271E080EB93E00E9452
:103910004A0B6091AA037091AB0380EB93E00E9485
:103920001A0C63E171E080EB93E00E942C0C64EFD1
:1039300070E080EB93E00E942C0C63EE70E080EB73
:1039400093E00E944A0B1BA21AA21DA21CA21FA256
:103950001EA24AE0BE016F5F7F4FC8010E94A421F2
:10396000BE016F5F7F4FCE0182960E94140BCE0185
:1039700082960E94AE178AA19BA10E94B02080EB84
:1039800093E00E94160CCE018E960E94AE1780EB3B
:1039900093E00E94160C80EB93E00E948B02892B2F
:1039A000D1F380EB93E00E948B02892B51F080EBE6
:1039B00093E00E947102682F8FEF92E00E94EC0961
:1039C000F0CF1092AD0380EB93E00E94B91188A56F
:1039D00099A50E94B0208EA59FA50E94B02065E504
:1039E00072E08FEF92E00E941A0C68E873E180E0C9
:1039F00090E00E94E20C0E94550AB2CD88EB91E063
:103A00009093D7038093D6031092D8031092D903D2
:103A10001092DA031092DB0310920203109201035A
:103A200048EE53E060E070E04093030350930403DA
:103A300060930503709306032CE631E03093000396
:103A40002093FF0225EC30E030930C0320930B030E
:103A500024EC30E030930E0320930D0320EC30E093
:103A60003093100320930F0321EC30E030931203C6
:103A70002093110322EC30E03093140320931303BE
:103A800026EC30E0309316032093150310921803B0
:103A90001092190310921A0310921B039093DD03E6
:103AA0008093DC031092DE031092DF031092E00398
:103AB0001092E1039093E3038093E2031092E403F6
:103AC0001092E5031092E6031092E7039093E90346
:103AD0008093E8031092EA031092EB031092EC0338
:103AE0001092ED039093EF038093EE031092F00396
:103AF0001092F1031092F2031092F3039093F503E6
:103B00008093F4031092F6031092F7031092F803D7
:103B10001092F90390939D0380939C0310929E034F
:103B200010929F031092A0031092A1039093A503FB
:103B30008093A4031092A6031092A7031092A803E7
:103B40001092A9039093FB038093FA031092FC0355
:103B50001092FD031092FE031092FF0390930F0446
:103B600080930E041092100410921104109212040B
:103B70001092130460E082E00E94A60CECEDF2E0EB
:103B8000E491E0930004E8ECF2E0E491F0E0EE0F61
:103B9000FF1FE454FD4F859194919093020480930C
:103BA000010410920B0410920D0410920C04EBE02F
:103BB000F4E0129284E0E330F807D9F784E89AE061
:103BC0009093D5038093D40380E094E09093C9034D
:103BD0008093C8031092C7031092C30389E08093B7
:103BE000C40381E08093C5038093C60388EB91E012
:103BF0009093BE038093BD0380EC8093BF0388EA5B
:103C00008093C0031092C10381EB8093C203109292
:103C1000B3031092B20388EE93E0A0E0B0E080938B
:103C2000B4039093B503A093B603B093B70384E9AC
:103C300091E09093B1038093B00384E08093BC0340
:103C400083E692E09093AB038093AA0385E0809390
:103C5000AC031092AD038EE190E00E941B20909384
:103C6000AF038093AE03089597FB072E16F40094DC
:103C700007D077FD09D00E944F1E07FC05D03EF407
:103C8000909581959F4F0895709561957F4F089508
:103C90006927962769277827872778270895AA1BF9
:103CA000BB1B51E107C0AA1FBB1FA617B70710F027
:103CB000A61BB70B881F991F5A95A9F78095909559
:103CC000BC01CD010895EE0FFF1F0590F491E02D8A
:103CD00009945058BB27AA270E94811E0C942925BD
:103CE0000E941B2538F00E94222520F039F49F3FC6
:103CF00019F426F40C9418250EF4E095E7FB0C94C7
:103D00001225E92F0E943A2558F3BA176207730764
:103D10008407950720F079F4A6F50C945C250EF441
:103D2000E0950B2EBA2FA02D0B01B90190010C01CB
:103D3000CA01A0011124FF27591B99F0593F50F4E3
:103D4000503E68F11A16F040A22F232F342F44273B
:103D5000585FF3CF469537952795A795F040539533
:103D6000C9F77EF41F16BA0B620B730B840BBAF003
:103D70009150A1F0FF0FBB1F661F771F881FC2F76E
:103D80000EC0BA0F621F731F841F48F48795779582
:103D90006795B795F7959E3F08F0B0CF9395880F3C
:103DA00008F09927EE0F9795879508950E94422570
:103DB00088F09F5798F0B92F9927B751B0F0E1F0EC
:103DC000660F771F881F991F1AF0BA95C9F714C09C
:103DD000B13091F00E945C25B1E008950C945C250F
:103DE000672F782F8827B85F39F0B93FCCF38695D5
:103DF00077956795B395D9F73EF490958095709532
:103E000061957F4F8F4F9F4F08950E94812408F442
:103E10008FEF08950E948124880B990B0895A0E0EC
:103E2000B0E0E5E1FFE10C949925EC01009721F465
:103E3000CB010E941B20B8C0FC01E60FF71F9C01BC
:103E400022503109E217F30708F4ACC0D9010D91F3
:103E50001C91119706171707B0F00530110508F4EB
:103E60009FC0C80104978617970708F499C00250AD
:103E70001109061B170B019311936D937C93CF01CE
:103E80000E94B0208DC05B01A01AB10A4C01800EC7
:103E9000911EA0912704B091280440E050E0E12C4D
:103EA000F12C109709F44AC0A815B905D1F56D9009
:103EB0007C901197630182E0C80ED11CCA14DB0408
:103EC00080F1A3014A195B096A0182E0C80ED11C86
:103ED0001296BC9012971396AC91B5E0CB16D10414
:103EE00040F0B282A38351834083D9016D937C93C8
:103EF0000AC00E5F1F4FC301800F911FF90191830C
:103F00008083EB2DFA2FE114F10431F0D7011396E1
:103F1000FC93EE93129744C0F0932804E093270497
:103F20003FC08D919C9111974817590708F4AC0137
:103F30007D0112960D90BC91A02DB3CF80912504E8
:103F40009091260488159905E1F446175707C8F49F
:103F50008091080190910901009741F48DB79EB7B7
:103F600040910C0150910D01841B950BE817F90746
:103F7000C8F4F0932604E0932504F901718360836B
:103F80000FC0CB010E941B207C01009759F0A801B3
:103F9000BE010E94EB1FCE010E94B020C70104C0E9
:103FA000CE0102C080E090E0CDB7DEB7EEE00C9429
:103FB000B52581E090E0F8940C94FD25FB01DC012F
:103FC00004C08D910190801921F441505040C8F7F0
:103FD000881B990B0895FB01DC0102C001900D9232
:103FE00041505040D8F70895FB01DC0101900D923B
:103FF0000020E1F70895EF920F931F93CF93DF9383
:10400000E80147FD02C034E001C034E1E42F440F71
:10401000FF0BF7FF03C0F195E195F109E32E022FA5
:104020002E2FAE010E94C921CE01DF91CF911F91A9
:104030000F91EF900895CF93DF938230910510F4A4
:1040400082E090E0E0912704F091280420E030E045
:10405000C0E0D0E0309711F14081518148175907F5
:10406000C0F04817590761F482819381209719F0B5
:104070009B838A832BC0909328048093270426C0B7
:104080002115310519F04217530718F49A01BE01A2
:10409000DF01EF010280F381E02DDCCF2115310536
:1040A00009F1281B390B2430310590F412968D91BB
:1040B0009C9113976115710521F0FB019383828315
:1040C00004C09093280480932704FD01329644C0D5
:1040D000FD01E20FF31F81939193225031092D933B
:1040E0003C933AC02091250430912604232B41F4BF
:1040F00020910A0130910B0130932604209325046E
:1041000020910801309109012115310541F42DB7A5
:104110003EB740910C0150910D01241B350BE091ED
:104120002504F0912604E217F307A0F42E1B3F0BA1
:104130002817390778F0AC014E5F5F4F2417350719
:1041400048F04E0F5F1F509326044093250481933F
:10415000919302C0E0E0F0E0CF01DF91CF910895AC
:104160000F931F93CF93DF93009709F48CC0FC014A
:1041700032971382128200912704109128040115AE
:10418000110581F420813181820F931F2091250434
:10419000309126042817390779F5F0932604E09327
:1041A000250471C0D80140E050E0AE17BF0750F4BD
:1041B00012962D913C911397AD012115310509F10E
:1041C000D901F3CF9D01DA013383228360817181AC
:1041D000860F971F8217930769F4EC0128813981B4
:1041E000260F371F2E5F3F4F318320838A819B81AB
:1041F00093838283452B29F4F0932804E0932704CA
:1042000042C01396FC93EE931297ED014991599198
:104210009E01240F351FE217F30771F4808191810D
:10422000840F951F029611969C938E9382819381A1
:1042300013969C938E931297E0E0F0E0D8011296CB
:104240008D919C911397009719F0F8018C01F6CF8E
:104250008D919C9198012E5F3F4F820F931F20916B
:104260002504309126042817390769F4309729F47A
:10427000109228041092270402C013821282109315
:10428000260400932504DF91CF911F910F9108958B
:104290008F929F92AF92BF92CF92DF92EF92FF9256
:1042A000CF93DF93EC01688179818A819B816115CD
:1042B00071058105910521F464E279ED8BE597E0C4
:1042C0002DE133EF41E050E00E94632549015A019E
:1042D0009B01AC01A7EAB1E40E9482256B017C013D
:1042E000ACEEB4EFA50194010E949025DC01CB0156
:1042F0008C0D9D1DAE1DBF1DB7FF03C00197A10909
:10430000B04888839983AA83BB83BC01CD019F7782
:10431000DF91CF91FF90EF90DF90CF90BF90AF9063
:104320009F908F9008950E94482108958EE091E01B
:104330000E944821089560930E0170930F018093AD
:104340001001909311010895BB274A3031F499234D
:1043500022F4BDE2909581959F4F0C94B021BB272C
:10436000FB015527AA27880F991FAA1FA41710F031
:10437000A41B83955051B9F7A05DAA3308F0A95D3D
:10438000A193009779F7B111B1931192CB010C94DD
:104390002F244F925F926F927F929F92AF92BF9223
:1043A000CF92DF92EF92FF920F931F93CF93DF9301
:1043B000CDB7DEB729970FB6F894DEBF0FBECDBFDD
:1043C0006A01122FB02E2BE3201720F0FF24F39464
:1043D000F00E02C0BCE3FB2E0F2D27E0AE014F5FB5
:1043E0005F4F0E945723AC018981982F99709130BB
:1043F00031F0E1FC06C0E0FE06C090E205C09DE29F
:1044000003C09BE201C090E0EE2DE07183FF3CC051
:10441000911102C083E001C084E0811718F4212FBC
:10442000281B01C020E0E1110BC0F601822F30E211
:10443000882319F031938150FBCFC20ED11C20E0AC
:10444000992329F0D6019C93F60131966F01C6019C
:104450000396E2FE0AC03EE4D6013C9341E4119685
:104460004C93119712963C9306C03EE6F6013083BA
:1044700041E641833283FC01322F40E2332309F4C9
:1044800042C041933150FACF82FF44C0911102C023
:1044900083E001C084E0811718F4212F281B01C09C
:1044A00020E0E1110BC0F601822F30E2882319F0E1
:1044B00031938150FBCFC20ED11C20E0992329F00B
:1044C000D6019C93F60131966F01C6010396E2FE78
:1044D0000BC039E4D6013C933EE411963C9311970E
:1044E00036E412963C9307C039E6F60130833EE687
:1044F000318336E63283FC01322F40E2332319F058
:1045000041933150FBCFFC01E20FF11D10828EEF81
:104510009FEFB7C0F1E0911101C0F0E06F2F70E0A4
:104520001416150624F49A012F5F3F4F02C021E0B4
:1045300030E0260F371FBB2029F06B2D70E06F5F36
:104540007F4F02C060E070E0260F371F612F70E0E0
:10455000261737071CF4121B212F01C020E03E2D27
:10456000387159F4D601322F60E2332319F06D937C
:104570003150FBCFC20ED11C20E0FF2331F0D60119
:104580009C93B6016F5F7F4F6B01E1110BC0F60189
:10459000922F30E3992319F031939150FBCFC20E43
:1045A000D11C20E09F2D940F3A81782F7071A72E97
:1045B00084FF03C0313309F49150191624F4993063
:1045C00018F098E001C091E0E42F852F57FF02C05A
:1045D000E0E080E06E2F782FE0E0F0E0AEE29A2E8F
:1045E0003A01691A71082A01461A570A0B2D10E080
:1045F0001195019511096F3F8FEF780729F4D601C6
:104600009C92C60101966C014617570784F0661606
:1046100077066CF47F01E40CF51CA1E0B0E0AC0F70
:10462000BD1FEA0EFB1ED7011196BC9002C090E39D
:10463000B92E615071093196C60101967C0160174F
:10464000710724F0D601BC926C01D5CF64177507B1
:1046500041F4363320F4353321F4A11002C081E354
:10466000B82EF601B082F701822F90E2882319F06C
:1046700091938150FBCFF701E20FF11D108280E092
:1046800090E029960FB6F894DEBF0FBECDBFDF9144
:10469000CF911F910F91FF90EF90DF90CF90BF903F
:1046A000AF909F907F906F905F904F9008952830CB
:1046B00008F027E03327DA01990F311D87FD91605B
:1046C00000966105710539F432602E5F3D9330E349
:1046D0002A95E1F708959F3F30F080387105610514
:1046E00009F03C5F3C5F3D93913008F08068911D7C
:1046F000DF93CF931F930F93FF92EF92192F987F21
:104700009695E92F96959695E90FFF27E059FC4F6E
:1047100099273327EE24FF24A701E7010590089489
:10472000079428F4360FE71EF81E491F511D660F27
:10473000771F881F991F0694A1F70590079428F406
:10474000E70EF81E491F561FC11D770F881F991FBE
:10475000661F0694A1F70590079428F4F80E491FE8
:10476000561FC71FD11D880F991F661F771F0694FC
:10477000A1F70590079420F4490F561FC71FD81FB3
:10478000990F661F771F881F0694A9F784911095CB
:10479000177041F0D695C79557954795F794E794CC
:1047A0001A95C1F7E6E1F3E06894159015913591FB
:1047B0006591959105907FE27395E118F10A430B9D
:1047C000560BC90BD009C0F7E10CF11E431F561F51
:1047D000C91FD01D7EF4703311F48A95E6CFE8949A
:1047E000015030F0080F0AF40027021708F4202FB8
:1047F0002395022F7A3328F079E37D932A95E9F700
:1048000010C07D932A9589F60694979567953795FC
:1048100017951794E118F10A430B560BC90BD009F1
:1048200098F023957E9173957A3308F070E37C932A
:104830002013B8F77E9170617D9330F0839571E31A
:104840007D9370E32A95E1F71124EF90FF900F918B
:104850001F91CF91DF91992787FD90950895DC01F5
:10486000FC01672F71917723E1F7329704C07C91A7
:104870006D9370836291AE17BF07C8F308950E94CD
:10488000812408F481E00895E89409C097FB3EF480
:1048900090958095709561957F4F8F4F9F4F99238D
:1048A000A9F0F92F96E9BB279395F695879577950B
:1048B0006795B795F111F8CFFAF4BB0F11F460FFCB
:1048C0001BC06F5F7F4F8F4F9F4F16C0882311F023
:1048D00096E911C0772321F09EE8872F762F05C037
:1048E000662371F096E8862F70E060E02AF09A95D2
:1048F000660F771F881FDAF7880F9695879597F9C7
:104900000895990F0008550FAA0BE0E8FEEF161660
:104910001706E807F907C0F012161306E407F507B3
:1049200098F0621B730B840B950B39F40A2661F027
:10493000232B242B252B21F408950A2609F4A140CA
:10494000A6958FEF811D811D08950E94B8240C94B7
:1049500029250E941B2538F00E94222520F095234E
:1049600011F00C9412250C94182511240C945D253B
:104970000E943A2570F3959FC1F3950F50E0551FA3
:10498000629FF001729FBB27F00DB11D639FAA27A4
:10499000F00DB11DAA1F649F6627B00DA11D661FF3
:1049A000829F2227B00DA11D621F739FB00DA11D14
:1049B000621F839FA00D611D221F749F3327A00DCE
:1049C000611D231F849F600D211D822F762F6A2F6A
:1049D00011249F5750409AF0F1F088234AF0EE0FCF
:1049E000FF1FBB1F661F771F881F91505040A9F7FC
:1049F0009E3F510580F00C9412250C945D255F3F7D
:104A0000E4F3983ED4F3869577956795B795F79537
:104A1000E7959F5FC1F7FE2B880F911D96958795AF
:104A200097F9089597F99F6780E870E060E008952E
:104A30009FEF80EC089500240A94161617061806B6
:104A40000906089500240A94121613061406050692
:104A50000895092E0394000C11F4882352F0BB0F23
:104A600040F4BF2B11F460FF04C06F5F7F4F8F4F86
:104A70009F4F089557FD9058440F551F59F05F3FC1
:104A800071F04795880F97FB991F61F09F3F79F070
:104A900087950895121613061406551FF2CF4695F2
:104AA000F1DF08C0161617061806991FF1CF869574
:104AB0007105610508940895E894BB276627772758
:104AC000CB0197F90895052E97FB1EF400940E94E0
:104AD0007A2557FD07D00E94CC2507FC03D04EF461
:104AE0000C947A2550954095309521953F4F4F4F26
:104AF0005F4F089590958095709561957F4F8F4F8A
:104B00009F4F08950E94EE25A59F900DB49F900D94
:104B1000A49F800D911D11240895B7FF0C94822548
:104B20000E948225821B930B08952F923F924F92F1
:104B30005F926F927F928F929F92AF92BF92CF922D
:104B4000DF92EF92FF920F931F93CF93DF93CDB736
:104B5000DEB7CA1BDB0B0FB6F894DEBF0FBECDBFAE
:104B600009942A88398848885F846E847D848C847F
:104B70009B84AA84B984C884DF80EE80FD800C8188
:104B80001B81AA81B981CE0FD11D0FB6F894DEBF6B
:104B90000FBECDBFED010895A1E21A2EAA1BBB1BCB
:104BA000FD010DC0AA1FBB1FEE1FFF1FA217B307F9
:104BB000E407F50720F0A21BB30BE40BF50B661F0F
:104BC000771F881F991F1A9469F7609570958095D3
:104BD00090959B01AC01BD01CF010895A29FB0014A
:104BE000B39FC001A39F700D811D1124911DB29F21
:0E4BF000700D811D1124911D0895F894FFCFC2
:104BFE0000C0DEADBEEFFEED000029048000010016
:104C0E000000000000006509650965096509650970
:104C1E006509650965096509650965096509650916
:104C2E0065096509650900000000F90EC40F0F0F34
:104C3E00420F2112011284106F104D11FC0F04113E
:104C4E006B0FAF12270F170F130F261301005E0005
:104C5E0000005E00BC00770100000000EC0968094E
:104C6E00B5099309A709330A000000006509680910
:104C7E00650965096509650900000000650968098F
:104C8E000000000033029F028B027102B110410F2F
:104C9E0013031E066D02B9119511390F55025302F9
:104CAE002E0F490200000000CC0B00000000650929
:104CBE0057495A6E6574004661696C656420746F5D
:104CCE0020636F6E666967757265204574686572DC
:104CDE006E6574207573696E6720444843500053A7
:104CEE00756875203A20006E616E00696E66006F01
:104CFE007666002E003538323963383064373632F6
:104D0E0035343231346533663964336131005B00DA
:104D1E007B227661726961626C65223A20220022E2
:104D2E002C202276616C7565223A007D002C2000C5
:104D3E005D007468696E67732E756269646F747353
:104D4E002E636F6D002D2D2D2D2D2D2D2D2D2D0026
:104D5E000D0A0069475067417A61686F6172426E51
:104D6E00646F335276444455666C6E307A316144CA
:024D7E004B00E8
:00000001FF
